{
  "address": "0x9f285507Ea5B4F33822CA7aBb5EC8953ce37A645",
  "abi": [
    {
      "inputs": [
        {
          "internalType": "address",
          "name": "_layerzeroEndpoint",
          "type": "address"
        }
      ],
      "stateMutability": "nonpayable",
      "type": "constructor"
    },
    {
      "anonymous": false,
      "inputs": [
        {
          "indexed": true,
          "internalType": "address",
          "name": "owner",
          "type": "address"
        },
        {
          "indexed": true,
          "internalType": "address",
          "name": "spender",
          "type": "address"
        },
        {
          "indexed": false,
          "internalType": "uint256",
          "name": "value",
          "type": "uint256"
        }
      ],
      "name": "Approval",
      "type": "event"
    },
    {
      "anonymous": false,
      "inputs": [
        {
          "indexed": true,
          "internalType": "address",
          "name": "account",
          "type": "address"
        },
        {
          "indexed": false,
          "internalType": "uint256",
          "name": "amount",
          "type": "uint256"
        }
      ],
      "name": "Burn",
      "type": "event"
    },
    {
      "anonymous": false,
      "inputs": [
        {
          "indexed": false,
          "internalType": "address",
          "name": "newBurner",
          "type": "address"
        }
      ],
      "name": "BurnerAdded",
      "type": "event"
    },
    {
      "anonymous": false,
      "inputs": [
        {
          "indexed": false,
          "internalType": "address",
          "name": "oldBurner",
          "type": "address"
        }
      ],
      "name": "BurnerRemoved",
      "type": "event"
    },
    {
      "anonymous": false,
      "inputs": [
        {
          "indexed": false,
          "internalType": "uint16",
          "name": "_srcChainId",
          "type": "uint16"
        },
        {
          "indexed": false,
          "internalType": "bytes",
          "name": "_srcAddress",
          "type": "bytes"
        },
        {
          "indexed": false,
          "internalType": "uint64",
          "name": "_nonce",
          "type": "uint64"
        },
        {
          "indexed": false,
          "internalType": "bytes",
          "name": "_payload",
          "type": "bytes"
        },
        {
          "indexed": false,
          "internalType": "bytes",
          "name": "_reason",
          "type": "bytes"
        }
      ],
      "name": "MessageFailed",
      "type": "event"
    },
    {
      "anonymous": false,
      "inputs": [
        {
          "indexed": true,
          "internalType": "address",
          "name": "account",
          "type": "address"
        },
        {
          "indexed": false,
          "internalType": "uint256",
          "name": "amount",
          "type": "uint256"
        }
      ],
      "name": "Mint",
      "type": "event"
    },
    {
      "anonymous": false,
      "inputs": [
        {
          "indexed": false,
          "internalType": "address",
          "name": "newMinter",
          "type": "address"
        }
      ],
      "name": "MinterAdded",
      "type": "event"
    },
    {
      "anonymous": false,
      "inputs": [
        {
          "indexed": false,
          "internalType": "address",
          "name": "oldMinter",
          "type": "address"
        }
      ],
      "name": "MinterRemoved",
      "type": "event"
    },
    {
      "anonymous": false,
      "inputs": [
        {
          "indexed": true,
          "internalType": "address",
          "name": "previousOwner",
          "type": "address"
        },
        {
          "indexed": true,
          "internalType": "address",
          "name": "newOwner",
          "type": "address"
        }
      ],
      "name": "OwnershipTransferred",
      "type": "event"
    },
    {
      "anonymous": false,
      "inputs": [
        {
          "indexed": true,
          "internalType": "uint16",
          "name": "_srcChainId",
          "type": "uint16"
        },
        {
          "indexed": true,
          "internalType": "address",
          "name": "_to",
          "type": "address"
        },
        {
          "indexed": false,
          "internalType": "uint256",
          "name": "_amount",
          "type": "uint256"
        }
      ],
      "name": "ReceiveFromChain",
      "type": "event"
    },
    {
      "anonymous": false,
      "inputs": [
        {
          "indexed": false,
          "internalType": "uint16",
          "name": "_srcChainId",
          "type": "uint16"
        },
        {
          "indexed": false,
          "internalType": "bytes",
          "name": "_srcAddress",
          "type": "bytes"
        },
        {
          "indexed": false,
          "internalType": "uint64",
          "name": "_nonce",
          "type": "uint64"
        },
        {
          "indexed": false,
          "internalType": "bytes32",
          "name": "_payloadHash",
          "type": "bytes32"
        }
      ],
      "name": "RetryMessageSuccess",
      "type": "event"
    },
    {
      "anonymous": false,
      "inputs": [
        {
          "indexed": true,
          "internalType": "uint16",
          "name": "_dstChainId",
          "type": "uint16"
        },
        {
          "indexed": true,
          "internalType": "address",
          "name": "_from",
          "type": "address"
        },
        {
          "indexed": false,
          "internalType": "bytes",
          "name": "_toAddress",
          "type": "bytes"
        },
        {
          "indexed": false,
          "internalType": "uint256",
          "name": "_amount",
          "type": "uint256"
        }
      ],
      "name": "SendToChain",
      "type": "event"
    },
    {
      "anonymous": false,
      "inputs": [
        {
          "indexed": false,
          "internalType": "uint16",
          "name": "_dstChainId",
          "type": "uint16"
        },
        {
          "indexed": false,
          "internalType": "uint16",
          "name": "_type",
          "type": "uint16"
        },
        {
          "indexed": false,
          "internalType": "uint256",
          "name": "_minDstGas",
          "type": "uint256"
        }
      ],
      "name": "SetMinDstGas",
      "type": "event"
    },
    {
      "anonymous": false,
      "inputs": [
        {
          "indexed": false,
          "internalType": "address",
          "name": "precrime",
          "type": "address"
        }
      ],
      "name": "SetPrecrime",
      "type": "event"
    },
    {
      "anonymous": false,
      "inputs": [
        {
          "indexed": false,
          "internalType": "uint16",
          "name": "_remoteChainId",
          "type": "uint16"
        },
        {
          "indexed": false,
          "internalType": "bytes",
          "name": "_path",
          "type": "bytes"
        }
      ],
      "name": "SetTrustedRemote",
      "type": "event"
    },
    {
      "anonymous": false,
      "inputs": [
        {
          "indexed": false,
          "internalType": "uint16",
          "name": "_remoteChainId",
          "type": "uint16"
        },
        {
          "indexed": false,
          "internalType": "bytes",
          "name": "_remoteAddress",
          "type": "bytes"
        }
      ],
      "name": "SetTrustedRemoteAddress",
      "type": "event"
    },
    {
      "anonymous": false,
      "inputs": [
        {
          "indexed": false,
          "internalType": "bool",
          "name": "_useCustomAdapterParams",
          "type": "bool"
        }
      ],
      "name": "SetUseCustomAdapterParams",
      "type": "event"
    },
    {
      "anonymous": false,
      "inputs": [
        {
          "indexed": true,
          "internalType": "address",
          "name": "from",
          "type": "address"
        },
        {
          "indexed": true,
          "internalType": "address",
          "name": "to",
          "type": "address"
        },
        {
          "indexed": false,
          "internalType": "uint256",
          "name": "value",
          "type": "uint256"
        }
      ],
      "name": "Transfer",
      "type": "event"
    },
    {
      "inputs": [],
      "name": "DEFAULT_PAYLOAD_SIZE_LIMIT",
      "outputs": [
        {
          "internalType": "uint256",
          "name": "",
          "type": "uint256"
        }
      ],
      "stateMutability": "view",
      "type": "function"
    },
    {
      "inputs": [],
      "name": "NO_EXTRA_GAS",
      "outputs": [
        {
          "internalType": "uint256",
          "name": "",
          "type": "uint256"
        }
      ],
      "stateMutability": "view",
      "type": "function"
    },
    {
      "inputs": [],
      "name": "PT_SEND",
      "outputs": [
        {
          "internalType": "uint16",
          "name": "",
          "type": "uint16"
        }
      ],
      "stateMutability": "view",
      "type": "function"
    },
    {
      "inputs": [
        {
          "internalType": "address",
          "name": "_newBurner",
          "type": "address"
        }
      ],
      "name": "addBurner",
      "outputs": [],
      "stateMutability": "nonpayable",
      "type": "function"
    },
    {
      "inputs": [
        {
          "internalType": "address",
          "name": "_newMinter",
          "type": "address"
        }
      ],
      "name": "addMinter",
      "outputs": [],
      "stateMutability": "nonpayable",
      "type": "function"
    },
    {
      "inputs": [
        {
          "internalType": "address",
          "name": "owner",
          "type": "address"
        },
        {
          "internalType": "address",
          "name": "spender",
          "type": "address"
        }
      ],
      "name": "allowance",
      "outputs": [
        {
          "internalType": "uint256",
          "name": "",
          "type": "uint256"
        }
      ],
      "stateMutability": "view",
      "type": "function"
    },
    {
      "inputs": [
        {
          "internalType": "address",
          "name": "spender",
          "type": "address"
        },
        {
          "internalType": "uint256",
          "name": "amount",
          "type": "uint256"
        }
      ],
      "name": "approve",
      "outputs": [
        {
          "internalType": "bool",
          "name": "",
          "type": "bool"
        }
      ],
      "stateMutability": "nonpayable",
      "type": "function"
    },
    {
      "inputs": [
        {
          "internalType": "address",
          "name": "account",
          "type": "address"
        }
      ],
      "name": "balanceOf",
      "outputs": [
        {
          "internalType": "uint256",
          "name": "",
          "type": "uint256"
        }
      ],
      "stateMutability": "view",
      "type": "function"
    },
    {
      "inputs": [],
      "name": "circulatingSupply",
      "outputs": [
        {
          "internalType": "uint256",
          "name": "",
          "type": "uint256"
        }
      ],
      "stateMutability": "view",
      "type": "function"
    },
    {
      "inputs": [],
      "name": "decimals",
      "outputs": [
        {
          "internalType": "uint8",
          "name": "",
          "type": "uint8"
        }
      ],
      "stateMutability": "view",
      "type": "function"
    },
    {
      "inputs": [
        {
          "internalType": "address",
          "name": "spender",
          "type": "address"
        },
        {
          "internalType": "uint256",
          "name": "subtractedValue",
          "type": "uint256"
        }
      ],
      "name": "decreaseAllowance",
      "outputs": [
        {
          "internalType": "bool",
          "name": "",
          "type": "bool"
        }
      ],
      "stateMutability": "nonpayable",
      "type": "function"
    },
    {
      "inputs": [
        {
          "internalType": "uint16",
          "name": "_dstChainId",
          "type": "uint16"
        },
        {
          "internalType": "bytes",
          "name": "_toAddress",
          "type": "bytes"
        },
        {
          "internalType": "uint256",
          "name": "_amount",
          "type": "uint256"
        },
        {
          "internalType": "bool",
          "name": "_useZro",
          "type": "bool"
        },
        {
          "internalType": "bytes",
          "name": "_adapterParams",
          "type": "bytes"
        }
      ],
      "name": "estimateSendFee",
      "outputs": [
        {
          "internalType": "uint256",
          "name": "nativeFee",
          "type": "uint256"
        },
        {
          "internalType": "uint256",
          "name": "zroFee",
          "type": "uint256"
        }
      ],
      "stateMutability": "view",
      "type": "function"
    },
    {
      "inputs": [
        {
          "internalType": "uint16",
          "name": "",
          "type": "uint16"
        },
        {
          "internalType": "bytes",
          "name": "",
          "type": "bytes"
        },
        {
          "internalType": "uint64",
          "name": "",
          "type": "uint64"
        }
      ],
      "name": "failedMessages",
      "outputs": [
        {
          "internalType": "bytes32",
          "name": "",
          "type": "bytes32"
        }
      ],
      "stateMutability": "view",
      "type": "function"
    },
    {
      "inputs": [
        {
          "internalType": "uint16",
          "name": "_srcChainId",
          "type": "uint16"
        },
        {
          "internalType": "bytes",
          "name": "_srcAddress",
          "type": "bytes"
        }
      ],
      "name": "forceResumeReceive",
      "outputs": [],
      "stateMutability": "nonpayable",
      "type": "function"
    },
    {
      "inputs": [
        {
          "internalType": "uint16",
          "name": "_version",
          "type": "uint16"
        },
        {
          "internalType": "uint16",
          "name": "_chainId",
          "type": "uint16"
        },
        {
          "internalType": "address",
          "name": "",
          "type": "address"
        },
        {
          "internalType": "uint256",
          "name": "_configType",
          "type": "uint256"
        }
      ],
      "name": "getConfig",
      "outputs": [
        {
          "internalType": "bytes",
          "name": "",
          "type": "bytes"
        }
      ],
      "stateMutability": "view",
      "type": "function"
    },
    {
      "inputs": [
        {
          "internalType": "uint16",
          "name": "_remoteChainId",
          "type": "uint16"
        }
      ],
      "name": "getTrustedRemoteAddress",
      "outputs": [
        {
          "internalType": "bytes",
          "name": "",
          "type": "bytes"
        }
      ],
      "stateMutability": "view",
      "type": "function"
    },
    {
      "inputs": [
        {
          "internalType": "address",
          "name": "spender",
          "type": "address"
        },
        {
          "internalType": "uint256",
          "name": "addedValue",
          "type": "uint256"
        }
      ],
      "name": "increaseAllowance",
      "outputs": [
        {
          "internalType": "bool",
          "name": "",
          "type": "bool"
        }
      ],
      "stateMutability": "nonpayable",
      "type": "function"
    },
    {
      "inputs": [
        {
          "internalType": "address",
          "name": "",
          "type": "address"
        }
      ],
      "name": "isBurner",
      "outputs": [
        {
          "internalType": "bool",
          "name": "",
          "type": "bool"
        }
      ],
      "stateMutability": "view",
      "type": "function"
    },
    {
      "inputs": [
        {
          "internalType": "address",
          "name": "",
          "type": "address"
        }
      ],
      "name": "isMinter",
      "outputs": [
        {
          "internalType": "bool",
          "name": "",
          "type": "bool"
        }
      ],
      "stateMutability": "view",
      "type": "function"
    },
    {
      "inputs": [
        {
          "internalType": "uint16",
          "name": "_srcChainId",
          "type": "uint16"
        },
        {
          "internalType": "bytes",
          "name": "_srcAddress",
          "type": "bytes"
        }
      ],
      "name": "isTrustedRemote",
      "outputs": [
        {
          "internalType": "bool",
          "name": "",
          "type": "bool"
        }
      ],
      "stateMutability": "view",
      "type": "function"
    },
    {
      "inputs": [],
      "name": "lzEndpoint",
      "outputs": [
        {
          "internalType": "contract ILayerZeroEndpoint",
          "name": "",
          "type": "address"
        }
      ],
      "stateMutability": "view",
      "type": "function"
    },
    {
      "inputs": [
        {
          "internalType": "uint16",
          "name": "_srcChainId",
          "type": "uint16"
        },
        {
          "internalType": "bytes",
          "name": "_srcAddress",
          "type": "bytes"
        },
        {
          "internalType": "uint64",
          "name": "_nonce",
          "type": "uint64"
        },
        {
          "internalType": "bytes",
          "name": "_payload",
          "type": "bytes"
        }
      ],
      "name": "lzReceive",
      "outputs": [],
      "stateMutability": "nonpayable",
      "type": "function"
    },
    {
      "inputs": [
        {
          "internalType": "uint16",
          "name": "",
          "type": "uint16"
        },
        {
          "internalType": "uint16",
          "name": "",
          "type": "uint16"
        }
      ],
      "name": "minDstGasLookup",
      "outputs": [
        {
          "internalType": "uint256",
          "name": "",
          "type": "uint256"
        }
      ],
      "stateMutability": "view",
      "type": "function"
    },
    {
      "inputs": [],
      "name": "name",
      "outputs": [
        {
          "internalType": "string",
          "name": "",
          "type": "string"
        }
      ],
      "stateMutability": "view",
      "type": "function"
    },
    {
      "inputs": [
        {
          "internalType": "uint16",
          "name": "_srcChainId",
          "type": "uint16"
        },
        {
          "internalType": "bytes",
          "name": "_srcAddress",
          "type": "bytes"
        },
        {
          "internalType": "uint64",
          "name": "_nonce",
          "type": "uint64"
        },
        {
          "internalType": "bytes",
          "name": "_payload",
          "type": "bytes"
        }
      ],
      "name": "nonblockingLzReceive",
      "outputs": [],
      "stateMutability": "nonpayable",
      "type": "function"
    },
    {
      "inputs": [],
      "name": "owner",
      "outputs": [
        {
          "internalType": "address",
          "name": "",
          "type": "address"
        }
      ],
      "stateMutability": "view",
      "type": "function"
    },
    {
      "inputs": [
        {
          "internalType": "uint16",
          "name": "",
          "type": "uint16"
        }
      ],
      "name": "payloadSizeLimitLookup",
      "outputs": [
        {
          "internalType": "uint256",
          "name": "",
          "type": "uint256"
        }
      ],
      "stateMutability": "view",
      "type": "function"
    },
    {
      "inputs": [],
      "name": "precrime",
      "outputs": [
        {
          "internalType": "address",
          "name": "",
          "type": "address"
        }
      ],
      "stateMutability": "view",
      "type": "function"
    },
    {
      "inputs": [
        {
          "internalType": "address",
          "name": "_oldBurner",
          "type": "address"
        }
      ],
      "name": "removeBurner",
      "outputs": [],
      "stateMutability": "nonpayable",
      "type": "function"
    },
    {
      "inputs": [
        {
          "internalType": "address",
          "name": "_oldMinter",
          "type": "address"
        }
      ],
      "name": "removeMinter",
      "outputs": [],
      "stateMutability": "nonpayable",
      "type": "function"
    },
    {
      "inputs": [],
      "name": "renounceOwnership",
      "outputs": [],
      "stateMutability": "nonpayable",
      "type": "function"
    },
    {
      "inputs": [
        {
          "internalType": "uint16",
          "name": "_srcChainId",
          "type": "uint16"
        },
        {
          "internalType": "bytes",
          "name": "_srcAddress",
          "type": "bytes"
        },
        {
          "internalType": "uint64",
          "name": "_nonce",
          "type": "uint64"
        },
        {
          "internalType": "bytes",
          "name": "_payload",
          "type": "bytes"
        }
      ],
      "name": "retryMessage",
      "outputs": [],
      "stateMutability": "payable",
      "type": "function"
    },
    {
      "inputs": [
        {
          "internalType": "address",
          "name": "_from",
          "type": "address"
        },
        {
          "internalType": "uint16",
          "name": "_dstChainId",
          "type": "uint16"
        },
        {
          "internalType": "bytes",
          "name": "_toAddress",
          "type": "bytes"
        },
        {
          "internalType": "uint256",
          "name": "_amount",
          "type": "uint256"
        },
        {
          "internalType": "address payable",
          "name": "_refundAddress",
          "type": "address"
        },
        {
          "internalType": "address",
          "name": "_zroPaymentAddress",
          "type": "address"
        },
        {
          "internalType": "bytes",
          "name": "_adapterParams",
          "type": "bytes"
        }
      ],
      "name": "sendFrom",
      "outputs": [],
      "stateMutability": "payable",
      "type": "function"
    },
    {
      "inputs": [
        {
          "internalType": "uint16",
          "name": "_version",
          "type": "uint16"
        },
        {
          "internalType": "uint16",
          "name": "_chainId",
          "type": "uint16"
        },
        {
          "internalType": "uint256",
          "name": "_configType",
          "type": "uint256"
        },
        {
          "internalType": "bytes",
          "name": "_config",
          "type": "bytes"
        }
      ],
      "name": "setConfig",
      "outputs": [],
      "stateMutability": "nonpayable",
      "type": "function"
    },
    {
      "inputs": [
        {
          "internalType": "uint16",
          "name": "_dstChainId",
          "type": "uint16"
        },
        {
          "internalType": "uint16",
          "name": "_packetType",
          "type": "uint16"
        },
        {
          "internalType": "uint256",
          "name": "_minGas",
          "type": "uint256"
        }
      ],
      "name": "setMinDstGas",
      "outputs": [],
      "stateMutability": "nonpayable",
      "type": "function"
    },
    {
      "inputs": [
        {
          "internalType": "uint16",
          "name": "_dstChainId",
          "type": "uint16"
        },
        {
          "internalType": "uint256",
          "name": "_size",
          "type": "uint256"
        }
      ],
      "name": "setPayloadSizeLimit",
      "outputs": [],
      "stateMutability": "nonpayable",
      "type": "function"
    },
    {
      "inputs": [
        {
          "internalType": "address",
          "name": "_precrime",
          "type": "address"
        }
      ],
      "name": "setPrecrime",
      "outputs": [],
      "stateMutability": "nonpayable",
      "type": "function"
    },
    {
      "inputs": [
        {
          "internalType": "uint16",
          "name": "_version",
          "type": "uint16"
        }
      ],
      "name": "setReceiveVersion",
      "outputs": [],
      "stateMutability": "nonpayable",
      "type": "function"
    },
    {
      "inputs": [
        {
          "internalType": "uint16",
          "name": "_version",
          "type": "uint16"
        }
      ],
      "name": "setSendVersion",
      "outputs": [],
      "stateMutability": "nonpayable",
      "type": "function"
    },
    {
      "inputs": [
        {
          "internalType": "uint16",
          "name": "_srcChainId",
          "type": "uint16"
        },
        {
          "internalType": "bytes",
          "name": "_path",
          "type": "bytes"
        }
      ],
      "name": "setTrustedRemote",
      "outputs": [],
      "stateMutability": "nonpayable",
      "type": "function"
    },
    {
      "inputs": [
        {
          "internalType": "uint16",
          "name": "_remoteChainId",
          "type": "uint16"
        },
        {
          "internalType": "bytes",
          "name": "_remoteAddress",
          "type": "bytes"
        }
      ],
      "name": "setTrustedRemoteAddress",
      "outputs": [],
      "stateMutability": "nonpayable",
      "type": "function"
    },
    {
      "inputs": [
        {
          "internalType": "bool",
          "name": "_useCustomAdapterParams",
          "type": "bool"
        }
      ],
      "name": "setUseCustomAdapterParams",
      "outputs": [],
      "stateMutability": "nonpayable",
      "type": "function"
    },
    {
      "inputs": [
        {
          "internalType": "bytes4",
          "name": "interfaceId",
          "type": "bytes4"
        }
      ],
      "name": "supportsInterface",
      "outputs": [
        {
          "internalType": "bool",
          "name": "",
          "type": "bool"
        }
      ],
      "stateMutability": "view",
      "type": "function"
    },
    {
      "inputs": [],
      "name": "symbol",
      "outputs": [
        {
          "internalType": "string",
          "name": "",
          "type": "string"
        }
      ],
      "stateMutability": "view",
      "type": "function"
    },
    {
      "inputs": [],
      "name": "token",
      "outputs": [
        {
          "internalType": "address",
          "name": "",
          "type": "address"
        }
      ],
      "stateMutability": "view",
      "type": "function"
    },
    {
      "inputs": [],
      "name": "totalSupply",
      "outputs": [
        {
          "internalType": "uint256",
          "name": "",
          "type": "uint256"
        }
      ],
      "stateMutability": "view",
      "type": "function"
    },
    {
      "inputs": [
        {
          "internalType": "address",
          "name": "to",
          "type": "address"
        },
        {
          "internalType": "uint256",
          "name": "amount",
          "type": "uint256"
        }
      ],
      "name": "transfer",
      "outputs": [
        {
          "internalType": "bool",
          "name": "",
          "type": "bool"
        }
      ],
      "stateMutability": "nonpayable",
      "type": "function"
    },
    {
      "inputs": [
        {
          "internalType": "address",
          "name": "from",
          "type": "address"
        },
        {
          "internalType": "address",
          "name": "to",
          "type": "address"
        },
        {
          "internalType": "uint256",
          "name": "amount",
          "type": "uint256"
        }
      ],
      "name": "transferFrom",
      "outputs": [
        {
          "internalType": "bool",
          "name": "",
          "type": "bool"
        }
      ],
      "stateMutability": "nonpayable",
      "type": "function"
    },
    {
      "inputs": [
        {
          "internalType": "address",
          "name": "newOwner",
          "type": "address"
        }
      ],
      "name": "transferOwnership",
      "outputs": [],
      "stateMutability": "nonpayable",
      "type": "function"
    },
    {
      "inputs": [
        {
          "internalType": "uint16",
          "name": "",
          "type": "uint16"
        }
      ],
      "name": "trustedRemoteLookup",
      "outputs": [
        {
          "internalType": "bytes",
          "name": "",
          "type": "bytes"
        }
      ],
      "stateMutability": "view",
      "type": "function"
    },
    {
      "inputs": [],
      "name": "useCustomAdapterParams",
      "outputs": [
        {
          "internalType": "bool",
          "name": "",
          "type": "bool"
        }
      ],
      "stateMutability": "view",
      "type": "function"
    }
  ],
  "transactionHash": "0xad8fd453619445d4a7eb7e8ebb173ff0c6ca845bf30f0f86f4270fded64ce4a0",
  "args": [
    "0x3c2269811836af69497E5F486A85D7316753cf62"
  ],
  "numDeployments": 1,
  "solcInputHash": "14e5718991347954fdb5c1467a4a7446",
  "bytecode": "0x60a06040523480156200001157600080fd5b5060405162003c2a38038062003c2a83398101604081905262000034916200013b565b6040518060400160405280600a8152602001692232b3b4b9aa37b5b2b760b11b8152506040518060400160405280600381526020016244454760e81b815250828282828080620000936200008d620000e760201b60201c565b620000eb565b6001600160a01b031660805250600a9050620000b0838262000212565b50600b620000bf828262000212565b5050336000908152600c60205260409020805460ff1916600117905550620002de9350505050565b3390565b600080546001600160a01b038381166001600160a01b0319831681178455604051919092169283917f8be0079c531659141344cd1fd0a4f28419497f9722a3daafe3b4186f6b6457e09190a35050565b6000602082840312156200014e57600080fd5b81516001600160a01b03811681146200016657600080fd5b9392505050565b634e487b7160e01b600052604160045260246000fd5b600181811c908216806200019857607f821691505b602082108103620001b957634e487b7160e01b600052602260045260246000fd5b50919050565b601f8211156200020d57600081815260208120601f850160051c81016020861015620001e85750805b601f850160051c820191505b818110156200020957828155600101620001f4565b5050505b505050565b81516001600160401b038111156200022e576200022e6200016d565b62000246816200023f845462000183565b84620001bf565b602080601f8311600181146200027e5760008415620002655750858301515b600019600386901b1c1916600185901b17855562000209565b600085815260208120601f198616915b82811015620002af578886015182559484019460019091019084016200028e565b5085821015620002ce5787850151600019600388901b60f8161c191681555b5050505050600190811b01905550565b6080516138f8620003326000396000818161082e015281816109c901528181610d9f01528181610e5f01528181610efd0152818161114a0152818161173401528181611c9701526126d401526138f86000f3fe6080604052600436106102e35760003560e01c80637533d78811610190578063baf3292d116100dc578063eab45d9c11610095578063f2fde38b1161006f578063f2fde38b14610953578063f44637ba14610973578063f5ecbdbc14610993578063fc0c546a146109b357600080fd5b8063eab45d9c146108f9578063eb8d72b714610919578063ed629c5c1461093957600080fd5b8063baf3292d14610850578063c446183414610870578063cbed8b9c14610886578063d1deba1f146108a6578063dd62ed3e146108b9578063df2a5b3b146108d957600080fd5b8063983b2d5611610149578063a6c3d16511610123578063a6c3d165146107ac578063a9059cbb146107cc578063aa271e1a146107ec578063b353aaa71461081c57600080fd5b8063983b2d561461074c5780639f38369a1461076c578063a457c2d71461078c57600080fd5b80637533d788146106785780638cfd8f5c146106985780638da5cb5b146106d05780639358928b14610702578063950c8a741461071757806395d89b411461073757600080fd5b8063313ce5671161024f57806344770515116102085780635b8c41e6116101e25780635b8c41e6146105be57806366ad5c8a1461060d57806370a082311461062d578063715018a61461066357600080fd5b8063447705151461056e5780634c42899a1461058357806351905636146105ab57600080fd5b8063313ce5671461049557806339509351146104b15780633d8b38f6146104d15780633f1f4fa4146104f157806342d65a8d1461051e5780634334614a1461053e57600080fd5b80630df37483116102a15780630df37483146103c157806310ddb137146103e157806318160ddd1461040157806323b872dd146104205780632a205e3d146104405780633092afd51461047557600080fd5b80621d3567146102e857806301ffc9a71461030a578063028468581461033f57806306fdde031461035f57806307e0db1714610381578063095ea7b3146103a1575b600080fd5b3480156102f457600080fd5b50610308610303366004612c67565b6109c6565b005b34801561031657600080fd5b5061032a610325366004612cfc565b610bf7565b60405190151581526020015b60405180910390f35b34801561034b57600080fd5b5061030861035a366004612d3b565b610c35565b34801561036b57600080fd5b50610374610cec565b6040516103369190612da8565b34801561038d57600080fd5b5061030861039c366004612dbb565b610d7e565b3480156103ad57600080fd5b5061032a6103bc366004612dd8565b610e07565b3480156103cd57600080fd5b506103086103dc366004612e04565b610e1f565b3480156103ed57600080fd5b506103086103fc366004612dbb565b610e3e565b34801561040d57600080fd5b506009545b604051908152602001610336565b34801561042c57600080fd5b5061032a61043b366004612e22565b610e96565b34801561044c57600080fd5b5061046061045b366004612e73565b610eba565b60408051928352602083019190915201610336565b34801561048157600080fd5b50610308610490366004612d3b565b610f8d565b3480156104a157600080fd5b5060405160128152602001610336565b3480156104bd57600080fd5b5061032a6104cc366004612dd8565b61103d565b3480156104dd57600080fd5b5061032a6104ec366004612f12565b61105f565b3480156104fd57600080fd5b5061041261050c366004612dbb565b60036020526000908152604090205481565b34801561052a57600080fd5b50610308610539366004612f12565b61112b565b34801561054a57600080fd5b5061032a610559366004612d3b565b600d6020526000908152604090205460ff1681565b34801561057a57600080fd5b50610412600081565b34801561058f57600080fd5b50610598600081565b60405161ffff9091168152602001610336565b6103086105b9366004612f66565b6111b1565b3480156105ca57600080fd5b506104126105d936600461309c565b6005602090815260009384526040808520845180860184018051928152908401958401959095209452929052825290205481565b34801561061957600080fd5b50610308610628366004612c67565b611236565b34801561063957600080fd5b50610412610648366004612d3b565b6001600160a01b031660009081526007602052604090205490565b34801561066f57600080fd5b50610308611312565b34801561068457600080fd5b50610374610693366004612dbb565b611326565b3480156106a457600080fd5b506104126106b336600461313e565b600260209081526000928352604080842090915290825290205481565b3480156106dc57600080fd5b506000546001600160a01b03165b6040516001600160a01b039091168152602001610336565b34801561070e57600080fd5b506104126113c0565b34801561072357600080fd5b506004546106ea906001600160a01b031681565b34801561074357600080fd5b506103746113d0565b34801561075857600080fd5b50610308610767366004612d3b565b6113df565b34801561077857600080fd5b50610374610787366004612dbb565b611497565b34801561079857600080fd5b5061032a6107a7366004612dd8565b6115ad565b3480156107b857600080fd5b506103086107c7366004612f12565b611628565b3480156107d857600080fd5b5061032a6107e7366004612dd8565b6116b1565b3480156107f857600080fd5b5061032a610807366004612d3b565b600c6020526000908152604090205460ff1681565b34801561082857600080fd5b506106ea7f000000000000000000000000000000000000000000000000000000000000000081565b34801561085c57600080fd5b5061030861086b366004612d3b565b6116bf565b34801561087c57600080fd5b5061041261271081565b34801561089257600080fd5b506103086108a1366004613177565b611715565b6103086108b4366004612c67565b61179f565b3480156108c557600080fd5b506104126108d43660046131e9565b6119b5565b3480156108e557600080fd5b506103086108f4366004613217565b6119e0565b34801561090557600080fd5b50610308610914366004613247565b611a92565b34801561092557600080fd5b50610308610934366004612f12565b611adb565b34801561094557600080fd5b5060065461032a9060ff1681565b34801561095f57600080fd5b5061030861096e366004612d3b565b611b35565b34801561097f57600080fd5b5061030861098e366004612d3b565b611bae565b34801561099f57600080fd5b506103746109ae366004613262565b611c66565b3480156109bf57600080fd5b50306106ea565b337f00000000000000000000000000000000000000000000000000000000000000006001600160a01b031614610a435760405162461bcd60e51b815260206004820152601e60248201527f4c7a4170703a20696e76616c696420656e64706f696e742063616c6c6572000060448201526064015b60405180910390fd5b61ffff861660009081526001602052604081208054610a61906132b3565b80601f0160208091040260200160405190810160405280929190818152602001828054610a8d906132b3565b8015610ada5780601f10610aaf57610100808354040283529160200191610ada565b820191906000526020600020905b815481529060010190602001808311610abd57829003601f168201915b50505050509050805186869050148015610af5575060008151115b8015610b1d575080516020820120604051610b1390889088906132ed565b6040518091039020145b610b785760405162461bcd60e51b815260206004820152602660248201527f4c7a4170703a20696e76616c696420736f757263652073656e64696e6720636f6044820152651b9d1c9858dd60d21b6064820152608401610a3a565b610bee8787878080601f01602080910402602001604051908101604052809392919081815260200183838082843760009201919091525050604080516020601f8a018190048102820181019092528881528a935091508890889081908401838280828437600092019190915250611d1792505050565b50505050505050565b60006001600160e01b031982161580610c2057506001600160e01b031982166336372b0760e01b145b80610c2f5750610c2f82611d90565b92915050565b610c3d611dc5565b6001600160a01b0381166000908152600c602052604090205460ff16610c945760405162461bcd60e51b815260206004820152600c60248201526b2737ba103090313ab93732b960a11b6044820152606401610a3a565b6001600160a01b0381166000818152600d6020908152604091829020805460ff1916905590519182527f90eabbc0c667db2a5029ed6bc0f5fe9f356d11684a4ca9fcfaec0e53f12b9c8e91015b60405180910390a150565b6060600a8054610cfb906132b3565b80601f0160208091040260200160405190810160405280929190818152602001828054610d27906132b3565b8015610d745780601f10610d4957610100808354040283529160200191610d74565b820191906000526020600020905b815481529060010190602001808311610d5757829003601f168201915b5050505050905090565b610d86611dc5565b6040516307e0db1760e01b815261ffff821660048201527f00000000000000000000000000000000000000000000000000000000000000006001600160a01b0316906307e0db17906024015b600060405180830381600087803b158015610dec57600080fd5b505af1158015610e00573d6000803e3d6000fd5b5050505050565b600033610e15818585611e1f565b5060019392505050565b610e27611dc5565b61ffff909116600090815260036020526040902055565b610e46611dc5565b6040516310ddb13760e01b815261ffff821660048201527f00000000000000000000000000000000000000000000000000000000000000006001600160a01b0316906310ddb13790602401610dd2565b600033610ea4858285611f43565b610eaf858585611fbd565b506001949350505050565b600080600080898989604051602001610ed69493929190613326565b60408051601f198184030181529082905263040a7bb160e41b825291506001600160a01b037f000000000000000000000000000000000000000000000000000000000000000016906340a7bb1090610f3c908d90309086908c908c908c90600401613355565b6040805180830381865afa158015610f58573d6000803e3d6000fd5b505050506040513d601f19601f82011682018060405250810190610f7c91906133ab565b925092505097509795505050505050565b610f95611dc5565b6001600160a01b0381166000908152600c602052604090205460ff16610fec5760405162461bcd60e51b815260206004820152600c60248201526b2737ba10309036b4b73a32b960a11b6044820152606401610a3a565b6001600160a01b0381166000818152600c6020908152604091829020805460ff1916905590519182527fe94479a9f7e1952cc78f2d6baab678adc1b772d936c6583def489e524cb666929101610ce1565b600033610e1581858561105083836119b5565b61105a91906133e5565b611e1f565b61ffff831660009081526001602052604081208054829190611080906132b3565b80601f01602080910402602001604051908101604052809291908181526020018280546110ac906132b3565b80156110f95780601f106110ce576101008083540402835291602001916110f9565b820191906000526020600020905b8154815290600101906020018083116110dc57829003601f168201915b5050505050905083836040516111109291906132ed565b60405180910390208180519060200120149150509392505050565b611133611dc5565b6040516342d65a8d60e01b81526001600160a01b037f000000000000000000000000000000000000000000000000000000000000000016906342d65a8d90611183908690869086906004016133f8565b600060405180830381600087803b15801561119d57600080fd5b505af1158015610bee573d6000803e3d6000fd5b61122b898989898080601f01602080910402602001604051908101604052809392919081815260200183838082843760009201919091525050604080516020601f8a018190048102820181019092528881528c93508b92508a918a908a908190840183828082843760009201919091525061216892505050565b505050505050505050565b3330146112945760405162461bcd60e51b815260206004820152602660248201527f4e6f6e626c6f636b696e674c7a4170703a2063616c6c6572206d7573742062656044820152650204c7a4170760d41b6064820152608401610a3a565b61130a8686868080601f01602080910402602001604051908101604052809392919081815260200183838082843760009201919091525050604080516020601f89018190048102820181019092528781528993509150879087908190840183828082843760009201919091525061220f92505050565b505050505050565b61131a611dc5565b6113246000612276565b565b6001602052600090815260409020805461133f906132b3565b80601f016020809104026020016040519081016040528092919081815260200182805461136b906132b3565b80156113b85780601f1061138d576101008083540402835291602001916113b8565b820191906000526020600020905b81548152906001019060200180831161139b57829003601f168201915b505050505081565b60006113cb60095490565b905090565b6060600b8054610cfb906132b3565b6113e7611dc5565b6001600160a01b0381166000908152600c602052604090205460ff16156114435760405162461bcd60e51b815260206004820152601060248201526f20b63932b0b23c90309036b4b73a32b960811b6044820152606401610a3a565b6001600160a01b0381166000818152600c6020908152604091829020805460ff1916600117905590519182527f6ae172837ea30b801fbfcdd4108aa1d5bf8ff775444fd70256b44e6bf3dfc3f69101610ce1565b61ffff81166000908152600160205260408120805460609291906114ba906132b3565b80601f01602080910402602001604051908101604052809291908181526020018280546114e6906132b3565b80156115335780601f1061150857610100808354040283529160200191611533565b820191906000526020600020905b81548152906001019060200180831161151657829003601f168201915b50505050509050805160000361158b5760405162461bcd60e51b815260206004820152601d60248201527f4c7a4170703a206e6f20747275737465642070617468207265636f72640000006044820152606401610a3a565b6115a660006014835161159e9190613416565b8391906122c6565b9392505050565b600033816115bb82866119b5565b90508381101561161b5760405162461bcd60e51b815260206004820152602560248201527f45524332303a2064656372656173656420616c6c6f77616e63652062656c6f77604482015264207a65726f60d81b6064820152608401610a3a565b610eaf8286868403611e1f565b611630611dc5565b81813060405160200161164593929190613429565b60408051601f1981840301815291815261ffff85166000908152600160205220906116709082613495565b507f8c0400cfe2d1199b1a725c78960bcc2a344d869b80590d0f2bd005db15a572ce8383836040516116a4939291906133f8565b60405180910390a1505050565b600033610e15818585611fbd565b6116c7611dc5565b600480546001600160a01b0319166001600160a01b0383169081179091556040519081527f5db758e995a17ec1ad84bdef7e8c3293a0bd6179bcce400dff5d4c3d87db726b90602001610ce1565b61171d611dc5565b6040516332fb62e760e21b81526001600160a01b037f0000000000000000000000000000000000000000000000000000000000000000169063cbed8b9c906117719088908890889088908890600401613554565b600060405180830381600087803b15801561178b57600080fd5b505af115801561122b573d6000803e3d6000fd5b61ffff861660009081526005602052604080822090516117c290889088906132ed565b90815260408051602092819003830190206001600160401b038716600090815292529020549050806118425760405162461bcd60e51b815260206004820152602360248201527f4e6f6e626c6f636b696e674c7a4170703a206e6f2073746f726564206d65737360448201526261676560e81b6064820152608401610a3a565b8083836040516118539291906132ed565b6040518091039020146118b25760405162461bcd60e51b815260206004820152602160248201527f4e6f6e626c6f636b696e674c7a4170703a20696e76616c6964207061796c6f616044820152601960fa1b6064820152608401610a3a565b61ffff871660009081526005602052604080822090516118d590899089906132ed565b90815260408051602092819003830181206001600160401b038916600090815290845282902093909355601f8801829004820283018201905286825261196d918991899089908190840183828082843760009201919091525050604080516020601f8a018190048102820181019092528881528a93509150889088908190840183828082843760009201919091525061220f92505050565b7fc264d91f3adc5588250e1551f547752ca0cfa8f6b530d243b9f9f4cab10ea8e587878787856040516119a495949392919061358d565b60405180910390a150505050505050565b6001600160a01b03918216600090815260086020908152604080832093909416825291909152205490565b6119e8611dc5565b60008111611a305760405162461bcd60e51b81526020600482015260156024820152744c7a4170703a20696e76616c6964206d696e47617360581b6044820152606401610a3a565b61ffff83811660008181526002602090815260408083209487168084529482529182902085905581519283528201929092529081018290527f9d5c7c0b934da8fefa9c7760c98383778a12dfbfc0c3b3106518f43fb9508ac0906060016116a4565b611a9a611dc5565b6006805460ff19168215159081179091556040519081527f1584ad594a70cbe1e6515592e1272a987d922b097ead875069cebe8b40c004a490602001610ce1565b611ae3611dc5565b61ffff83166000908152600160205260409020611b018284836135c8565b507ffa41487ad5d6728f0b19276fa1eddc16558578f5109fc39d2dc33c3230470dab8383836040516116a4939291906133f8565b611b3d611dc5565b6001600160a01b038116611ba25760405162461bcd60e51b815260206004820152602660248201527f4f776e61626c653a206e6577206f776e657220697320746865207a65726f206160448201526564647265737360d01b6064820152608401610a3a565b611bab81612276565b50565b611bb6611dc5565b6001600160a01b0381166000908152600d602052604090205460ff1615611c125760405162461bcd60e51b815260206004820152601060248201526f20b63932b0b23c903090313ab93732b960811b6044820152606401610a3a565b6001600160a01b0381166000818152600d6020908152604091829020805460ff1916600117905590519182527f86e57fd2b90329052917118de7c3f521f400d439b9650deaa906a25b08b945609101610ce1565b604051633d7b2f6f60e21b815261ffff808616600483015284166024820152306044820152606481018290526060907f00000000000000000000000000000000000000000000000000000000000000006001600160a01b03169063f5ecbdbc90608401600060405180830381865afa158015611ce6573d6000803e3d6000fd5b505050506040513d6000823e601f3d908101601f19168201604052611d0e91908101906136d4565b95945050505050565b600080611d7a5a60966366ad5c8a60e01b89898989604051602401611d3f9493929190613708565b60408051601f198184030181529190526020810180516001600160e01b03166001600160e01b031990931692909217909152309291906123d3565b915091508161130a5761130a868686868561245d565b60006001600160e01b03198216630a72677560e11b1480610c2f57506301ffc9a760e01b6001600160e01b0319831614610c2f565b6000546001600160a01b031633146113245760405162461bcd60e51b815260206004820181905260248201527f4f776e61626c653a2063616c6c6572206973206e6f7420746865206f776e65726044820152606401610a3a565b6001600160a01b038316611e815760405162461bcd60e51b8152602060048201526024808201527f45524332303a20617070726f76652066726f6d20746865207a65726f206164646044820152637265737360e01b6064820152608401610a3a565b6001600160a01b038216611ee25760405162461bcd60e51b815260206004820152602260248201527f45524332303a20617070726f766520746f20746865207a65726f206164647265604482015261737360f01b6064820152608401610a3a565b6001600160a01b0383811660008181526008602090815260408083209487168084529482529182902085905590518481527f8c5be1e5ebec7d5bd14f71427d1e84f3dd0314c0f7b2291e5b200ac8c7c3b925910160405180910390a3505050565b6000611f4f84846119b5565b90506000198114611fb75781811015611faa5760405162461bcd60e51b815260206004820152601d60248201527f45524332303a20696e73756666696369656e7420616c6c6f77616e63650000006044820152606401610a3a565b611fb78484848403611e1f565b50505050565b6001600160a01b0383166120215760405162461bcd60e51b815260206004820152602560248201527f45524332303a207472616e736665722066726f6d20746865207a65726f206164604482015264647265737360d81b6064820152608401610a3a565b6001600160a01b0382166120835760405162461bcd60e51b815260206004820152602360248201527f45524332303a207472616e7366657220746f20746865207a65726f206164647260448201526265737360e81b6064820152608401610a3a565b6001600160a01b038316600090815260076020526040902054818110156120fb5760405162461bcd60e51b815260206004820152602660248201527f45524332303a207472616e7366657220616d6f756e7420657863656564732062604482015265616c616e636560d01b6064820152608401610a3a565b6001600160a01b0380851660008181526007602052604080822086860390559286168082529083902080548601905591517fddf252ad1be2c89b69c2b068fc378daa952ba7f163c4a11628f55a4df523b3ef9061215b9086815260200190565b60405180910390a3611fb7565b6121768660008360006124ff565b600061218488888888612579565b9050600080878360405160200161219d93929190613746565b60405160208183030381529060405290506121bc8882878787346125ab565b886001600160a01b03168861ffff167f39a4c66499bcf4b56d79f0dde8ed7a9d4925a0df55825206b2b8531e202be0d089856040516121fc929190613773565b60405180910390a3505050505050505050565b602081015161ffff811661222e5761222985858585612750565b610e00565b60405162461bcd60e51b815260206004820152601c60248201527f4f4654436f72653a20756e6b6e6f776e207061636b65742074797065000000006044820152606401610a3a565b600080546001600160a01b038381166001600160a01b0319831681178455604051919092169283917f8be0079c531659141344cd1fd0a4f28419497f9722a3daafe3b4186f6b6457e09190a35050565b6060816122d481601f6133e5565b10156123135760405162461bcd60e51b815260206004820152600e60248201526d736c6963655f6f766572666c6f7760901b6044820152606401610a3a565b61231d82846133e5565b845110156123615760405162461bcd60e51b8152602060048201526011602482015270736c6963655f6f75744f66426f756e647360781b6044820152606401610a3a565b60608215801561238057604051915060008252602082016040526123ca565b6040519150601f8416801560200281840101858101878315602002848b0101015b818310156123b95780518352602092830192016123a1565b5050858452601f01601f1916604052505b50949350505050565b6000606060008060008661ffff166001600160401b038111156123f8576123f861302f565b6040519080825280601f01601f191660200182016040528015612422576020820181803683370190505b50905060008087516020890160008d8df191503d925086831115612444578692505b828152826000602083013e909890975095505050505050565b8180519060200120600560008761ffff1661ffff1681526020019081526020016000208560405161248e9190613795565b9081526040805191829003602090810183206001600160401b0388166000908152915220919091557fe183f33de2837795525b4792ca4cd60535bd77c53b7e7030060bfcf5734d6b0c906124eb90879087908790879087906137b1565b60405180910390a15050505050565b505050565b60065460ff161561251b57612516848484846127da565b611fb7565b815115611fb75760405162461bcd60e51b815260206004820152602660248201527f4f4654436f72653a205f61646170746572506172616d73206d7573742062652060448201526532b6b83a3c9760d11b6064820152608401610a3a565b6000336001600160a01b038616811461259757612597868285611f43565b6125a186846128b9565b5090949350505050565b61ffff8616600090815260016020526040812080546125c9906132b3565b80601f01602080910402602001604051908101604052809291908181526020018280546125f5906132b3565b80156126425780601f1061261757610100808354040283529160200191612642565b820191906000526020600020905b81548152906001019060200180831161262557829003601f168201915b5050505050905080516000036126b35760405162461bcd60e51b815260206004820152603060248201527f4c7a4170703a2064657374696e6174696f6e20636861696e206973206e6f742060448201526f61207472757374656420736f7572636560801b6064820152608401610a3a565b6126be8787516129ed565b60405162c5803160e81b81526001600160a01b037f0000000000000000000000000000000000000000000000000000000000000000169063c5803100908490612715908b9086908c908c908c908c9060040161380f565b6000604051808303818588803b15801561272e57600080fd5b505af1158015612742573d6000803e3d6000fd5b505050505050505050505050565b600080828060200190518101906127679190613869565b90935091506000905061277a8382612a5e565b9050612787878284612ac3565b9150806001600160a01b03168761ffff167fbf551ec93859b170f9b2141bd9298bf3f64322c6f7beb2543a0cb669834118bf846040516127c991815260200190565b60405180910390a350505050505050565b60006127e583612ad6565b61ffff8087166000908152600260209081526040808320938916835292905290812054919250906128179084906133e5565b9050600081116128695760405162461bcd60e51b815260206004820152601a60248201527f4c7a4170703a206d696e4761734c696d6974206e6f74207365740000000000006044820152606401610a3a565b8082101561130a5760405162461bcd60e51b815260206004820152601b60248201527f4c7a4170703a20676173206c696d697420697320746f6f206c6f7700000000006044820152606401610a3a565b6001600160a01b0382166129195760405162461bcd60e51b815260206004820152602160248201527f45524332303a206275726e2066726f6d20746865207a65726f206164647265736044820152607360f81b6064820152608401610a3a565b6001600160a01b0382166000908152600760205260409020548181101561298d5760405162461bcd60e51b815260206004820152602260248201527f45524332303a206275726e20616d6f756e7420657863656564732062616c616e604482015261636560f01b6064820152608401610a3a565b6001600160a01b03831660008181526007602090815260408083208686039055600980548790039055518581529192917fddf252ad1be2c89b69c2b068fc378daa952ba7f163c4a11628f55a4df523b3ef910160405180910390a3505050565b61ffff821660009081526003602052604081205490819003612a0e57506127105b808211156124fa5760405162461bcd60e51b815260206004820181905260248201527f4c7a4170703a207061796c6f61642073697a6520697320746f6f206c617267656044820152606401610a3a565b6000612a6b8260146133e5565b83511015612ab35760405162461bcd60e51b8152602060048201526015602482015274746f416464726573735f6f75744f66426f756e647360581b6044820152606401610a3a565b500160200151600160601b900490565b6000612acf8383612b32565b5092915050565b6000602282511015612b2a5760405162461bcd60e51b815260206004820152601c60248201527f4c7a4170703a20696e76616c69642061646170746572506172616d73000000006044820152606401610a3a565b506022015190565b6001600160a01b038216612b885760405162461bcd60e51b815260206004820152601f60248201527f45524332303a206d696e7420746f20746865207a65726f2061646472657373006044820152606401610a3a565b8060096000828254612b9a91906133e5565b90915550506001600160a01b0382166000818152600760209081526040808320805486019055518481527fddf252ad1be2c89b69c2b068fc378daa952ba7f163c4a11628f55a4df523b3ef910160405180910390a35050565b61ffff81168114611bab57600080fd5b60008083601f840112612c1557600080fd5b5081356001600160401b03811115612c2c57600080fd5b602083019150836020828501011115612c4457600080fd5b9250929050565b80356001600160401b0381168114612c6257600080fd5b919050565b60008060008060008060808789031215612c8057600080fd5b8635612c8b81612bf3565b955060208701356001600160401b0380821115612ca757600080fd5b612cb38a838b01612c03565b9097509550859150612cc760408a01612c4b565b94506060890135915080821115612cdd57600080fd5b50612cea89828a01612c03565b979a9699509497509295939492505050565b600060208284031215612d0e57600080fd5b81356001600160e01b0319811681146115a657600080fd5b6001600160a01b0381168114611bab57600080fd5b600060208284031215612d4d57600080fd5b81356115a681612d26565b60005b83811015612d73578181015183820152602001612d5b565b50506000910152565b60008151808452612d94816020860160208601612d58565b601f01601f19169290920160200192915050565b6020815260006115a66020830184612d7c565b600060208284031215612dcd57600080fd5b81356115a681612bf3565b60008060408385031215612deb57600080fd5b8235612df681612d26565b946020939093013593505050565b60008060408385031215612e1757600080fd5b8235612df681612bf3565b600080600060608486031215612e3757600080fd5b8335612e4281612d26565b92506020840135612e5281612d26565b929592945050506040919091013590565b80358015158114612c6257600080fd5b600080600080600080600060a0888a031215612e8e57600080fd5b8735612e9981612bf3565b965060208801356001600160401b0380821115612eb557600080fd5b612ec18b838c01612c03565b909850965060408a01359550869150612edc60608b01612e63565b945060808a0135915080821115612ef257600080fd5b50612eff8a828b01612c03565b989b979a50959850939692959293505050565b600080600060408486031215612f2757600080fd5b8335612f3281612bf3565b925060208401356001600160401b03811115612f4d57600080fd5b612f5986828701612c03565b9497909650939450505050565b600080600080600080600080600060e08a8c031215612f8457600080fd5b8935612f8f81612d26565b985060208a0135612f9f81612bf3565b975060408a01356001600160401b0380821115612fbb57600080fd5b612fc78d838e01612c03565b909950975060608c0135965060808c01359150612fe382612d26565b90945060a08b013590612ff582612d26565b90935060c08b0135908082111561300b57600080fd5b506130188c828d01612c03565b915080935050809150509295985092959850929598565b634e487b7160e01b600052604160045260246000fd5b604051601f8201601f191681016001600160401b038111828210171561306d5761306d61302f565b604052919050565b60006001600160401b0382111561308e5761308e61302f565b50601f01601f191660200190565b6000806000606084860312156130b157600080fd5b83356130bc81612bf3565b925060208401356001600160401b038111156130d757600080fd5b8401601f810186136130e857600080fd5b80356130fb6130f682613075565b613045565b81815287602083850101111561311057600080fd5b8160208401602083013760006020838301015280945050505061313560408501612c4b565b90509250925092565b6000806040838503121561315157600080fd5b823561315c81612bf3565b9150602083013561316c81612bf3565b809150509250929050565b60008060008060006080868803121561318f57600080fd5b853561319a81612bf3565b945060208601356131aa81612bf3565b93506040860135925060608601356001600160401b038111156131cc57600080fd5b6131d888828901612c03565b969995985093965092949392505050565b600080604083850312156131fc57600080fd5b823561320781612d26565b9150602083013561316c81612d26565b60008060006060848603121561322c57600080fd5b833561323781612bf3565b92506020840135612e5281612bf3565b60006020828403121561325957600080fd5b6115a682612e63565b6000806000806080858703121561327857600080fd5b843561328381612bf3565b9350602085013561329381612bf3565b925060408501356132a381612d26565b9396929550929360600135925050565b600181811c908216806132c757607f821691505b6020821081036132e757634e487b7160e01b600052602260045260246000fd5b50919050565b8183823760009101908152919050565b81835281816020850137506000828201602090810191909152601f909101601f19169091010190565b61ffff851681526060602082015260006133446060830185876132fd565b905082604083015295945050505050565b61ffff871681526001600160a01b038616602082015260a06040820181905260009061338390830187612d7c565b8515156060840152828103608084015261339e8185876132fd565b9998505050505050505050565b600080604083850312156133be57600080fd5b505080516020909101519092909150565b634e487b7160e01b600052601160045260246000fd5b80820180821115610c2f57610c2f6133cf565b61ffff84168152604060208201526000611d0e6040830184866132fd565b81810381811115610c2f57610c2f6133cf565b8284823760609190911b6bffffffffffffffffffffffff19169101908152601401919050565b601f8211156124fa57600081815260208120601f850160051c810160208610156134765750805b601f850160051c820191505b8181101561130a57828155600101613482565b81516001600160401b038111156134ae576134ae61302f565b6134c2816134bc84546132b3565b8461344f565b602080601f8311600181146134f757600084156134df5750858301515b600019600386901b1c1916600185901b17855561130a565b600085815260208120601f198616915b8281101561352657888601518255948401946001909101908401613507565b50858210156135445787850151600019600388901b60f8161c191681555b5050505050600190811b01905550565b600061ffff8088168352808716602084015250846040830152608060608301526135826080830184866132fd565b979650505050505050565b61ffff861681526080602082015260006135ab6080830186886132fd565b6001600160401b0394909416604083015250606001529392505050565b6001600160401b038311156135df576135df61302f565b6135f3836135ed83546132b3565b8361344f565b6000601f841160018114613627576000851561360f5750838201355b600019600387901b1c1916600186901b178355610e00565b600083815260209020601f19861690835b828110156136585786850135825560209485019460019092019101613638565b50868210156136755760001960f88860031b161c19848701351681555b505060018560011b0183555050505050565b600082601f83011261369857600080fd5b81516136a66130f682613075565b8181528460208386010111156136bb57600080fd5b6136cc826020830160208701612d58565b949350505050565b6000602082840312156136e657600080fd5b81516001600160401b038111156136fc57600080fd5b6136cc84828501613687565b61ffff851681526080602082015260006137256080830186612d7c565b6001600160401b038516604084015282810360608401526135828185612d7c565b61ffff841681526060602082015260006137636060830185612d7c565b9050826040830152949350505050565b6040815260006137866040830185612d7c565b90508260208301529392505050565b600082516137a7818460208701612d58565b9190910192915050565b61ffff8616815260a0602082015260006137ce60a0830187612d7c565b6001600160401b038616604084015282810360608401526137ef8186612d7c565b905082810360808401526138038185612d7c565b98975050505050505050565b61ffff8716815260c06020820152600061382c60c0830188612d7c565b828103604084015261383e8188612d7c565b6001600160a01b0387811660608601528616608085015283810360a0850152905061339e8185612d7c565b60008060006060848603121561387e57600080fd5b835161388981612bf3565b60208501519093506001600160401b038111156138a557600080fd5b6138b186828701613687565b92505060408401519050925092509256fea264697066735822122054e6e393f152748de90e3cb88b178c2916350560463148c2c75e43c4bfa8418264736f6c63430008110033",
  "devdoc": {
    "kind": "dev",
    "methods": {
      "addBurner(address)": {
        "params": {
          "_newBurner": "Address of the new burner"
        }
      },
      "addMinter(address)": {
        "params": {
          "_newMinter": "Address of the new minter"
        }
      },
      "allowance(address,address)": {
        "details": "See {IERC20-allowance}."
      },
      "approve(address,uint256)": {
        "details": "See {IERC20-approve}. NOTE: If `amount` is the maximum `uint256`, the allowance is not updated on `transferFrom`. This is semantically equivalent to an infinite approval. Requirements: - `spender` cannot be the zero address."
      },
      "balanceOf(address)": {
        "details": "See {IERC20-balanceOf}."
      },
      "circulatingSupply()": {
        "details": "returns the circulating amount of tokens on current chain"
      },
      "decimals()": {
        "details": "Returns the number of decimals used to get its user representation. For example, if `decimals` equals `2`, a balance of `505` tokens should be displayed to a user as `5.05` (`505 / 10 ** 2`). Tokens usually opt for a value of 18, imitating the relationship between Ether and Wei. This is the value {ERC20} uses, unless this function is overridden; NOTE: This information is only used for _display_ purposes: it in no way affects any of the arithmetic of the contract, including {IERC20-balanceOf} and {IERC20-transfer}."
      },
      "decreaseAllowance(address,uint256)": {
        "details": "Atomically decreases the allowance granted to `spender` by the caller. This is an alternative to {approve} that can be used as a mitigation for problems described in {IERC20-approve}. Emits an {Approval} event indicating the updated allowance. Requirements: - `spender` cannot be the zero address. - `spender` must have allowance for the caller of at least `subtractedValue`."
      },
      "estimateSendFee(uint16,bytes,uint256,bool,bytes)": {
        "details": "estimate send token `_tokenId` to (`_dstChainId`, `_toAddress`) _dstChainId - L0 defined chain id to send tokens too _toAddress - dynamic bytes array which contains the address to whom you are sending tokens to on the dstChain _amount - amount of the tokens to transfer _useZro - indicates to use zro to pay L0 fees _adapterParam - flexible bytes array to indicate messaging adapter services in L0"
      },
      "increaseAllowance(address,uint256)": {
        "details": "Atomically increases the allowance granted to `spender` by the caller. This is an alternative to {approve} that can be used as a mitigation for problems described in {IERC20-approve}. Emits an {Approval} event indicating the updated allowance. Requirements: - `spender` cannot be the zero address."
      },
      "name()": {
        "details": "Returns the name of the token."
      },
      "owner()": {
        "details": "Returns the address of the current owner."
      },
      "removeBurner(address)": {
        "params": {
          "_oldBurner": "Address of the minter to be removed"
        }
      },
      "removeMinter(address)": {
        "params": {
          "_oldMinter": "Address of the minter to be removed"
        }
      },
      "renounceOwnership()": {
        "details": "Leaves the contract without owner. It will not be possible to call `onlyOwner` functions anymore. Can only be called by the current owner. NOTE: Renouncing ownership will leave the contract without an owner, thereby removing any functionality that is only available to the owner."
      },
      "sendFrom(address,uint16,bytes,uint256,address,address,bytes)": {
        "details": "send `_amount` amount of token to (`_dstChainId`, `_toAddress`) from `_from` `_from` the owner of token `_dstChainId` the destination chain identifier `_toAddress` can be any size depending on the `dstChainId`. `_amount` the quantity of tokens in wei `_refundAddress` the address LayerZero refunds if too much message fee is sent `_zroPaymentAddress` set to address(0x0) if not paying in ZRO (LayerZero Token) `_adapterParams` is a flexible bytes array to indicate messaging adapter services"
      },
      "symbol()": {
        "details": "Returns the symbol of the token, usually a shorter version of the name."
      },
      "token()": {
        "details": "returns the address of the ERC20 token"
      },
      "totalSupply()": {
        "details": "See {IERC20-totalSupply}."
      },
      "transfer(address,uint256)": {
        "details": "See {IERC20-transfer}. Requirements: - `to` cannot be the zero address. - the caller must have a balance of at least `amount`."
      },
      "transferFrom(address,address,uint256)": {
        "details": "See {IERC20-transferFrom}. Emits an {Approval} event indicating the updated allowance. This is not required by the EIP. See the note at the beginning of {ERC20}. NOTE: Does not update the allowance if the current allowance is the maximum `uint256`. Requirements: - `from` and `to` cannot be the zero address. - `from` must have a balance of at least `amount`. - the caller must have allowance for ``from``'s tokens of at least `amount`."
      },
      "transferOwnership(address)": {
        "details": "Transfers ownership of the contract to a new account (`newOwner`). Can only be called by the current owner."
      }
    },
    "version": 1
  },
  "userdoc": {
    "kind": "user",
    "methods": {
      "addBurner(address)": {
        "notice": "Add a new burner into the burnerList"
      },
      "addMinter(address)": {
        "notice": "Add a new minter into the minterList"
      },
      "removeBurner(address)": {
        "notice": "Remove a minter from the minterList"
      },
      "removeMinter(address)": {
        "notice": "Remove a minter from the minterList"
      }
    },
    "version": 1
  },
  "storageLayout": {
    "storage": [
      {
        "astId": 1983,
        "contract": "contracts/DegisOFT.sol:DegisOFT",
        "label": "_owner",
        "offset": 0,
        "slot": "0",
        "type": "t_address"
      },
      {
        "astId": 215,
        "contract": "contracts/DegisOFT.sol:DegisOFT",
        "label": "trustedRemoteLookup",
        "offset": 0,
        "slot": "1",
        "type": "t_mapping(t_uint16,t_bytes_storage)"
      },
      {
        "astId": 221,
        "contract": "contracts/DegisOFT.sol:DegisOFT",
        "label": "minDstGasLookup",
        "offset": 0,
        "slot": "2",
        "type": "t_mapping(t_uint16,t_mapping(t_uint16,t_uint256))"
      },
      {
        "astId": 225,
        "contract": "contracts/DegisOFT.sol:DegisOFT",
        "label": "payloadSizeLimitLookup",
        "offset": 0,
        "slot": "3",
        "type": "t_mapping(t_uint16,t_uint256)"
      },
      {
        "astId": 227,
        "contract": "contracts/DegisOFT.sol:DegisOFT",
        "label": "precrime",
        "offset": 0,
        "slot": "4",
        "type": "t_address"
      },
      {
        "astId": 764,
        "contract": "contracts/DegisOFT.sol:DegisOFT",
        "label": "failedMessages",
        "offset": 0,
        "slot": "5",
        "type": "t_mapping(t_uint16,t_mapping(t_bytes_memory_ptr,t_mapping(t_uint64,t_bytes32)))"
      },
      {
        "astId": 1229,
        "contract": "contracts/DegisOFT.sol:DegisOFT",
        "label": "useCustomAdapterParams",
        "offset": 0,
        "slot": "6",
        "type": "t_bool"
      },
      {
        "astId": 2104,
        "contract": "contracts/DegisOFT.sol:DegisOFT",
        "label": "_balances",
        "offset": 0,
        "slot": "7",
        "type": "t_mapping(t_address,t_uint256)"
      },
      {
        "astId": 2110,
        "contract": "contracts/DegisOFT.sol:DegisOFT",
        "label": "_allowances",
        "offset": 0,
        "slot": "8",
        "type": "t_mapping(t_address,t_mapping(t_address,t_uint256))"
      },
      {
        "astId": 2112,
        "contract": "contracts/DegisOFT.sol:DegisOFT",
        "label": "_totalSupply",
        "offset": 0,
        "slot": "9",
        "type": "t_uint256"
      },
      {
        "astId": 2114,
        "contract": "contracts/DegisOFT.sol:DegisOFT",
        "label": "_name",
        "offset": 0,
        "slot": "10",
        "type": "t_string_storage"
      },
      {
        "astId": 2116,
        "contract": "contracts/DegisOFT.sol:DegisOFT",
        "label": "_symbol",
        "offset": 0,
        "slot": "11",
        "type": "t_string_storage"
      },
      {
        "astId": 3495,
        "contract": "contracts/DegisOFT.sol:DegisOFT",
        "label": "isMinter",
        "offset": 0,
        "slot": "12",
        "type": "t_mapping(t_address,t_bool)"
      },
      {
        "astId": 3499,
        "contract": "contracts/DegisOFT.sol:DegisOFT",
        "label": "isBurner",
        "offset": 0,
        "slot": "13",
        "type": "t_mapping(t_address,t_bool)"
      }
    ],
    "types": {
      "t_address": {
        "encoding": "inplace",
        "label": "address",
        "numberOfBytes": "20"
      },
      "t_bool": {
        "encoding": "inplace",
        "label": "bool",
        "numberOfBytes": "1"
      },
      "t_bytes32": {
        "encoding": "inplace",
        "label": "bytes32",
        "numberOfBytes": "32"
      },
      "t_bytes_memory_ptr": {
        "encoding": "bytes",
        "label": "bytes",
        "numberOfBytes": "32"
      },
      "t_bytes_storage": {
        "encoding": "bytes",
        "label": "bytes",
        "numberOfBytes": "32"
      },
      "t_mapping(t_address,t_bool)": {
        "encoding": "mapping",
        "key": "t_address",
        "label": "mapping(address => bool)",
        "numberOfBytes": "32",
        "value": "t_bool"
      },
      "t_mapping(t_address,t_mapping(t_address,t_uint256))": {
        "encoding": "mapping",
        "key": "t_address",
        "label": "mapping(address => mapping(address => uint256))",
        "numberOfBytes": "32",
        "value": "t_mapping(t_address,t_uint256)"
      },
      "t_mapping(t_address,t_uint256)": {
        "encoding": "mapping",
        "key": "t_address",
        "label": "mapping(address => uint256)",
        "numberOfBytes": "32",
        "value": "t_uint256"
      },
      "t_mapping(t_bytes_memory_ptr,t_mapping(t_uint64,t_bytes32))": {
        "encoding": "mapping",
        "key": "t_bytes_memory_ptr",
        "label": "mapping(bytes => mapping(uint64 => bytes32))",
        "numberOfBytes": "32",
        "value": "t_mapping(t_uint64,t_bytes32)"
      },
      "t_mapping(t_uint16,t_bytes_storage)": {
        "encoding": "mapping",
        "key": "t_uint16",
        "label": "mapping(uint16 => bytes)",
        "numberOfBytes": "32",
        "value": "t_bytes_storage"
      },
      "t_mapping(t_uint16,t_mapping(t_bytes_memory_ptr,t_mapping(t_uint64,t_bytes32)))": {
        "encoding": "mapping",
        "key": "t_uint16",
        "label": "mapping(uint16 => mapping(bytes => mapping(uint64 => bytes32)))",
        "numberOfBytes": "32",
        "value": "t_mapping(t_bytes_memory_ptr,t_mapping(t_uint64,t_bytes32))"
      },
      "t_mapping(t_uint16,t_mapping(t_uint16,t_uint256))": {
        "encoding": "mapping",
        "key": "t_uint16",
        "label": "mapping(uint16 => mapping(uint16 => uint256))",
        "numberOfBytes": "32",
        "value": "t_mapping(t_uint16,t_uint256)"
      },
      "t_mapping(t_uint16,t_uint256)": {
        "encoding": "mapping",
        "key": "t_uint16",
        "label": "mapping(uint16 => uint256)",
        "numberOfBytes": "32",
        "value": "t_uint256"
      },
      "t_mapping(t_uint64,t_bytes32)": {
        "encoding": "mapping",
        "key": "t_uint64",
        "label": "mapping(uint64 => bytes32)",
        "numberOfBytes": "32",
        "value": "t_bytes32"
      },
      "t_string_storage": {
        "encoding": "bytes",
        "label": "string",
        "numberOfBytes": "32"
      },
      "t_uint16": {
        "encoding": "inplace",
        "label": "uint16",
        "numberOfBytes": "2"
      },
      "t_uint256": {
        "encoding": "inplace",
        "label": "uint256",
        "numberOfBytes": "32"
      },
      "t_uint64": {
        "encoding": "inplace",
        "label": "uint64",
        "numberOfBytes": "8"
      }
    }
  }
}