{
  "address": "0x3DA175e017D0578df38FEAeB9E50E39679c5FD02",
  "abi": [
    {
      "inputs": [
        {
          "internalType": "address",
          "name": "_token",
          "type": "address"
        }
      ],
      "stateMutability": "nonpayable",
      "type": "constructor"
    },
    {
      "anonymous": false,
      "inputs": [
        {
          "indexed": false,
          "internalType": "uint16",
          "name": "_srcChainId",
          "type": "uint16"
        },
        {
          "indexed": false,
          "internalType": "bytes",
          "name": "_srcAddress",
          "type": "bytes"
        },
        {
          "indexed": false,
          "internalType": "uint64",
          "name": "_nonce",
          "type": "uint64"
        },
        {
          "indexed": false,
          "internalType": "bytes",
          "name": "_payload",
          "type": "bytes"
        },
        {
          "indexed": false,
          "internalType": "bytes",
          "name": "_reason",
          "type": "bytes"
        }
      ],
      "name": "MessageFailed",
      "type": "event"
    },
    {
      "anonymous": false,
      "inputs": [
        {
          "indexed": true,
          "internalType": "address",
          "name": "previousOwner",
          "type": "address"
        },
        {
          "indexed": true,
          "internalType": "address",
          "name": "newOwner",
          "type": "address"
        }
      ],
      "name": "OwnershipTransferred",
      "type": "event"
    },
    {
      "anonymous": false,
      "inputs": [
        {
          "indexed": true,
          "internalType": "uint16",
          "name": "_srcChainId",
          "type": "uint16"
        },
        {
          "indexed": true,
          "internalType": "address",
          "name": "_to",
          "type": "address"
        },
        {
          "indexed": false,
          "internalType": "uint256",
          "name": "_amount",
          "type": "uint256"
        }
      ],
      "name": "ReceiveFromChain",
      "type": "event"
    },
    {
      "anonymous": false,
      "inputs": [
        {
          "indexed": false,
          "internalType": "uint16",
          "name": "_srcChainId",
          "type": "uint16"
        },
        {
          "indexed": false,
          "internalType": "bytes",
          "name": "_srcAddress",
          "type": "bytes"
        },
        {
          "indexed": false,
          "internalType": "uint64",
          "name": "_nonce",
          "type": "uint64"
        },
        {
          "indexed": false,
          "internalType": "bytes32",
          "name": "_payloadHash",
          "type": "bytes32"
        }
      ],
      "name": "RetryMessageSuccess",
      "type": "event"
    },
    {
      "anonymous": false,
      "inputs": [
        {
          "indexed": true,
          "internalType": "uint16",
          "name": "_dstChainId",
          "type": "uint16"
        },
        {
          "indexed": true,
          "internalType": "address",
          "name": "_from",
          "type": "address"
        },
        {
          "indexed": false,
          "internalType": "bytes",
          "name": "_toAddress",
          "type": "bytes"
        },
        {
          "indexed": false,
          "internalType": "uint256",
          "name": "_amount",
          "type": "uint256"
        }
      ],
      "name": "SendToChain",
      "type": "event"
    },
    {
      "anonymous": false,
      "inputs": [
        {
          "indexed": false,
          "internalType": "uint16",
          "name": "_dstChainId",
          "type": "uint16"
        },
        {
          "indexed": false,
          "internalType": "uint16",
          "name": "_type",
          "type": "uint16"
        },
        {
          "indexed": false,
          "internalType": "uint256",
          "name": "_minDstGas",
          "type": "uint256"
        }
      ],
      "name": "SetMinDstGas",
      "type": "event"
    },
    {
      "anonymous": false,
      "inputs": [
        {
          "indexed": false,
          "internalType": "address",
          "name": "precrime",
          "type": "address"
        }
      ],
      "name": "SetPrecrime",
      "type": "event"
    },
    {
      "anonymous": false,
      "inputs": [
        {
          "indexed": false,
          "internalType": "uint16",
          "name": "_remoteChainId",
          "type": "uint16"
        },
        {
          "indexed": false,
          "internalType": "bytes",
          "name": "_path",
          "type": "bytes"
        }
      ],
      "name": "SetTrustedRemote",
      "type": "event"
    },
    {
      "anonymous": false,
      "inputs": [
        {
          "indexed": false,
          "internalType": "uint16",
          "name": "_remoteChainId",
          "type": "uint16"
        },
        {
          "indexed": false,
          "internalType": "bytes",
          "name": "_remoteAddress",
          "type": "bytes"
        }
      ],
      "name": "SetTrustedRemoteAddress",
      "type": "event"
    },
    {
      "anonymous": false,
      "inputs": [
        {
          "indexed": false,
          "internalType": "bool",
          "name": "_useCustomAdapterParams",
          "type": "bool"
        }
      ],
      "name": "SetUseCustomAdapterParams",
      "type": "event"
    },
    {
      "inputs": [],
      "name": "DEFAULT_PAYLOAD_SIZE_LIMIT",
      "outputs": [
        {
          "internalType": "uint256",
          "name": "",
          "type": "uint256"
        }
      ],
      "stateMutability": "view",
      "type": "function"
    },
    {
      "inputs": [],
      "name": "LZ_ENDPOINT",
      "outputs": [
        {
          "internalType": "address",
          "name": "",
          "type": "address"
        }
      ],
      "stateMutability": "view",
      "type": "function"
    },
    {
      "inputs": [],
      "name": "NO_EXTRA_GAS",
      "outputs": [
        {
          "internalType": "uint256",
          "name": "",
          "type": "uint256"
        }
      ],
      "stateMutability": "view",
      "type": "function"
    },
    {
      "inputs": [],
      "name": "PT_SEND",
      "outputs": [
        {
          "internalType": "uint16",
          "name": "",
          "type": "uint16"
        }
      ],
      "stateMutability": "view",
      "type": "function"
    },
    {
      "inputs": [],
      "name": "circulatingSupply",
      "outputs": [
        {
          "internalType": "uint256",
          "name": "",
          "type": "uint256"
        }
      ],
      "stateMutability": "view",
      "type": "function"
    },
    {
      "inputs": [
        {
          "internalType": "uint16",
          "name": "_dstChainId",
          "type": "uint16"
        },
        {
          "internalType": "bytes",
          "name": "_toAddress",
          "type": "bytes"
        },
        {
          "internalType": "uint256",
          "name": "_amount",
          "type": "uint256"
        },
        {
          "internalType": "bool",
          "name": "_useZro",
          "type": "bool"
        },
        {
          "internalType": "bytes",
          "name": "_adapterParams",
          "type": "bytes"
        }
      ],
      "name": "estimateSendFee",
      "outputs": [
        {
          "internalType": "uint256",
          "name": "nativeFee",
          "type": "uint256"
        },
        {
          "internalType": "uint256",
          "name": "zroFee",
          "type": "uint256"
        }
      ],
      "stateMutability": "view",
      "type": "function"
    },
    {
      "inputs": [
        {
          "internalType": "uint16",
          "name": "",
          "type": "uint16"
        },
        {
          "internalType": "bytes",
          "name": "",
          "type": "bytes"
        },
        {
          "internalType": "uint64",
          "name": "",
          "type": "uint64"
        }
      ],
      "name": "failedMessages",
      "outputs": [
        {
          "internalType": "bytes32",
          "name": "",
          "type": "bytes32"
        }
      ],
      "stateMutability": "view",
      "type": "function"
    },
    {
      "inputs": [
        {
          "internalType": "uint16",
          "name": "_srcChainId",
          "type": "uint16"
        },
        {
          "internalType": "bytes",
          "name": "_srcAddress",
          "type": "bytes"
        }
      ],
      "name": "forceResumeReceive",
      "outputs": [],
      "stateMutability": "nonpayable",
      "type": "function"
    },
    {
      "inputs": [
        {
          "internalType": "uint16",
          "name": "_version",
          "type": "uint16"
        },
        {
          "internalType": "uint16",
          "name": "_chainId",
          "type": "uint16"
        },
        {
          "internalType": "address",
          "name": "",
          "type": "address"
        },
        {
          "internalType": "uint256",
          "name": "_configType",
          "type": "uint256"
        }
      ],
      "name": "getConfig",
      "outputs": [
        {
          "internalType": "bytes",
          "name": "",
          "type": "bytes"
        }
      ],
      "stateMutability": "view",
      "type": "function"
    },
    {
      "inputs": [
        {
          "internalType": "uint16",
          "name": "_remoteChainId",
          "type": "uint16"
        }
      ],
      "name": "getTrustedRemoteAddress",
      "outputs": [
        {
          "internalType": "bytes",
          "name": "",
          "type": "bytes"
        }
      ],
      "stateMutability": "view",
      "type": "function"
    },
    {
      "inputs": [
        {
          "internalType": "uint16",
          "name": "_srcChainId",
          "type": "uint16"
        },
        {
          "internalType": "bytes",
          "name": "_srcAddress",
          "type": "bytes"
        }
      ],
      "name": "isTrustedRemote",
      "outputs": [
        {
          "internalType": "bool",
          "name": "",
          "type": "bool"
        }
      ],
      "stateMutability": "view",
      "type": "function"
    },
    {
      "inputs": [],
      "name": "lzEndpoint",
      "outputs": [
        {
          "internalType": "contract ILayerZeroEndpoint",
          "name": "",
          "type": "address"
        }
      ],
      "stateMutability": "view",
      "type": "function"
    },
    {
      "inputs": [
        {
          "internalType": "uint16",
          "name": "_srcChainId",
          "type": "uint16"
        },
        {
          "internalType": "bytes",
          "name": "_srcAddress",
          "type": "bytes"
        },
        {
          "internalType": "uint64",
          "name": "_nonce",
          "type": "uint64"
        },
        {
          "internalType": "bytes",
          "name": "_payload",
          "type": "bytes"
        }
      ],
      "name": "lzReceive",
      "outputs": [],
      "stateMutability": "nonpayable",
      "type": "function"
    },
    {
      "inputs": [
        {
          "internalType": "uint16",
          "name": "",
          "type": "uint16"
        },
        {
          "internalType": "uint16",
          "name": "",
          "type": "uint16"
        }
      ],
      "name": "minDstGasLookup",
      "outputs": [
        {
          "internalType": "uint256",
          "name": "",
          "type": "uint256"
        }
      ],
      "stateMutability": "view",
      "type": "function"
    },
    {
      "inputs": [
        {
          "internalType": "uint16",
          "name": "_srcChainId",
          "type": "uint16"
        },
        {
          "internalType": "bytes",
          "name": "_srcAddress",
          "type": "bytes"
        },
        {
          "internalType": "uint64",
          "name": "_nonce",
          "type": "uint64"
        },
        {
          "internalType": "bytes",
          "name": "_payload",
          "type": "bytes"
        }
      ],
      "name": "nonblockingLzReceive",
      "outputs": [],
      "stateMutability": "nonpayable",
      "type": "function"
    },
    {
      "inputs": [],
      "name": "owner",
      "outputs": [
        {
          "internalType": "address",
          "name": "",
          "type": "address"
        }
      ],
      "stateMutability": "view",
      "type": "function"
    },
    {
      "inputs": [
        {
          "internalType": "uint16",
          "name": "",
          "type": "uint16"
        }
      ],
      "name": "payloadSizeLimitLookup",
      "outputs": [
        {
          "internalType": "uint256",
          "name": "",
          "type": "uint256"
        }
      ],
      "stateMutability": "view",
      "type": "function"
    },
    {
      "inputs": [],
      "name": "precrime",
      "outputs": [
        {
          "internalType": "address",
          "name": "",
          "type": "address"
        }
      ],
      "stateMutability": "view",
      "type": "function"
    },
    {
      "inputs": [],
      "name": "renounceOwnership",
      "outputs": [],
      "stateMutability": "nonpayable",
      "type": "function"
    },
    {
      "inputs": [
        {
          "internalType": "uint16",
          "name": "_srcChainId",
          "type": "uint16"
        },
        {
          "internalType": "bytes",
          "name": "_srcAddress",
          "type": "bytes"
        },
        {
          "internalType": "uint64",
          "name": "_nonce",
          "type": "uint64"
        },
        {
          "internalType": "bytes",
          "name": "_payload",
          "type": "bytes"
        }
      ],
      "name": "retryMessage",
      "outputs": [],
      "stateMutability": "payable",
      "type": "function"
    },
    {
      "inputs": [
        {
          "internalType": "address",
          "name": "_from",
          "type": "address"
        },
        {
          "internalType": "uint16",
          "name": "_dstChainId",
          "type": "uint16"
        },
        {
          "internalType": "bytes",
          "name": "_toAddress",
          "type": "bytes"
        },
        {
          "internalType": "uint256",
          "name": "_amount",
          "type": "uint256"
        },
        {
          "internalType": "address payable",
          "name": "_refundAddress",
          "type": "address"
        },
        {
          "internalType": "address",
          "name": "_zroPaymentAddress",
          "type": "address"
        },
        {
          "internalType": "bytes",
          "name": "_adapterParams",
          "type": "bytes"
        }
      ],
      "name": "sendFrom",
      "outputs": [],
      "stateMutability": "payable",
      "type": "function"
    },
    {
      "inputs": [
        {
          "internalType": "uint16",
          "name": "_version",
          "type": "uint16"
        },
        {
          "internalType": "uint16",
          "name": "_chainId",
          "type": "uint16"
        },
        {
          "internalType": "uint256",
          "name": "_configType",
          "type": "uint256"
        },
        {
          "internalType": "bytes",
          "name": "_config",
          "type": "bytes"
        }
      ],
      "name": "setConfig",
      "outputs": [],
      "stateMutability": "nonpayable",
      "type": "function"
    },
    {
      "inputs": [
        {
          "internalType": "uint16",
          "name": "_dstChainId",
          "type": "uint16"
        },
        {
          "internalType": "uint16",
          "name": "_packetType",
          "type": "uint16"
        },
        {
          "internalType": "uint256",
          "name": "_minGas",
          "type": "uint256"
        }
      ],
      "name": "setMinDstGas",
      "outputs": [],
      "stateMutability": "nonpayable",
      "type": "function"
    },
    {
      "inputs": [
        {
          "internalType": "uint16",
          "name": "_dstChainId",
          "type": "uint16"
        },
        {
          "internalType": "uint256",
          "name": "_size",
          "type": "uint256"
        }
      ],
      "name": "setPayloadSizeLimit",
      "outputs": [],
      "stateMutability": "nonpayable",
      "type": "function"
    },
    {
      "inputs": [
        {
          "internalType": "address",
          "name": "_precrime",
          "type": "address"
        }
      ],
      "name": "setPrecrime",
      "outputs": [],
      "stateMutability": "nonpayable",
      "type": "function"
    },
    {
      "inputs": [
        {
          "internalType": "uint16",
          "name": "_version",
          "type": "uint16"
        }
      ],
      "name": "setReceiveVersion",
      "outputs": [],
      "stateMutability": "nonpayable",
      "type": "function"
    },
    {
      "inputs": [
        {
          "internalType": "uint16",
          "name": "_version",
          "type": "uint16"
        }
      ],
      "name": "setSendVersion",
      "outputs": [],
      "stateMutability": "nonpayable",
      "type": "function"
    },
    {
      "inputs": [
        {
          "internalType": "uint16",
          "name": "_srcChainId",
          "type": "uint16"
        },
        {
          "internalType": "bytes",
          "name": "_path",
          "type": "bytes"
        }
      ],
      "name": "setTrustedRemote",
      "outputs": [],
      "stateMutability": "nonpayable",
      "type": "function"
    },
    {
      "inputs": [
        {
          "internalType": "uint16",
          "name": "_remoteChainId",
          "type": "uint16"
        },
        {
          "internalType": "bytes",
          "name": "_remoteAddress",
          "type": "bytes"
        }
      ],
      "name": "setTrustedRemoteAddress",
      "outputs": [],
      "stateMutability": "nonpayable",
      "type": "function"
    },
    {
      "inputs": [
        {
          "internalType": "bool",
          "name": "_useCustomAdapterParams",
          "type": "bool"
        }
      ],
      "name": "setUseCustomAdapterParams",
      "outputs": [],
      "stateMutability": "nonpayable",
      "type": "function"
    },
    {
      "inputs": [
        {
          "internalType": "bytes4",
          "name": "interfaceId",
          "type": "bytes4"
        }
      ],
      "name": "supportsInterface",
      "outputs": [
        {
          "internalType": "bool",
          "name": "",
          "type": "bool"
        }
      ],
      "stateMutability": "view",
      "type": "function"
    },
    {
      "inputs": [],
      "name": "token",
      "outputs": [
        {
          "internalType": "address",
          "name": "",
          "type": "address"
        }
      ],
      "stateMutability": "view",
      "type": "function"
    },
    {
      "inputs": [
        {
          "internalType": "address",
          "name": "newOwner",
          "type": "address"
        }
      ],
      "name": "transferOwnership",
      "outputs": [],
      "stateMutability": "nonpayable",
      "type": "function"
    },
    {
      "inputs": [
        {
          "internalType": "uint16",
          "name": "",
          "type": "uint16"
        }
      ],
      "name": "trustedRemoteLookup",
      "outputs": [
        {
          "internalType": "bytes",
          "name": "",
          "type": "bytes"
        }
      ],
      "stateMutability": "view",
      "type": "function"
    },
    {
      "inputs": [],
      "name": "useCustomAdapterParams",
      "outputs": [
        {
          "internalType": "bool",
          "name": "",
          "type": "bool"
        }
      ],
      "stateMutability": "view",
      "type": "function"
    }
  ],
  "transactionHash": "0xb5de40bc4aad722823fe981b2a006b0a03994b648850ca503cb7a4a004e79fee",
  "args": [
    "0x9f285507Ea5B4F33822CA7aBb5EC8953ce37A645"
  ],
  "numDeployments": 1,
  "solcInputHash": "14e5718991347954fdb5c1467a4a7446",
  "bytecode": "0x60c06040523480156200001157600080fd5b50604051620033eb380380620033eb8339810160408190526200003491620000c4565b733c2269811836af69497e5f486a85d7316753cf628080620000563362000074565b6001600160a01b039081166080529290921660a05250620000f69050565b600080546001600160a01b038381166001600160a01b0319831681178455604051919092169283917f8be0079c531659141344cd1fd0a4f28419497f9722a3daafe3b4186f6b6457e09190a35050565b600060208284031215620000d757600080fd5b81516001600160a01b0381168114620000ef57600080fd5b9392505050565b60805160a05161325f6200018c600039600081816106dd01528181610eb501528181610f2a01528181611c2f01528181611cb101528181611cf0015281816121ef0152818161226901526122b1015260008181610561015281816107040152818161098a01528181610a3201528181610aac01528181610c27015281816111cb0152818161164b0152611ea0015261325f6000f3fe6080604052600436106102035760003560e01c80638da5cb5b11610118578063cd4d1c64116100a0578063eb8d72b71161006f578063eb8d72b714610654578063ed629c5c14610674578063f2fde38b1461068e578063f5ecbdbc146106ae578063fc0c546a146106ce57600080fd5b8063cd4d1c64146105d9578063d1deba1f14610601578063df2a5b3b14610614578063eab45d9c1461063457600080fd5b8063a6c3d165116100e7578063a6c3d1651461052f578063b353aaa71461054f578063baf3292d14610583578063c4461834146105a3578063cbed8b9c146105b957600080fd5b80638da5cb5b146104a85780639358928b146104da578063950c8a74146104ef5780639f38369a1461050f57600080fd5b806342d65a8d1161019b5780635b8c41e61161016a5780635b8c41e6146103bf57806366ad5c8a1461040e578063715018a61461042e5780637533d788146104435780638cfd8f5c1461047057600080fd5b806342d65a8d1461034f578063447705151461036f5780634c42899a1461038457806351905636146103ac57600080fd5b806310ddb137116101d757806310ddb1371461029f5780632a205e3d146102bf5780633d8b38f6146102f45780633f1f4fa41461031457600080fd5b80621d35671461020857806301ffc9a71461022a57806307e0db171461025f5780630df374831461027f575b600080fd5b34801561021457600080fd5b50610228610223366004612626565b610701565b005b34801561023657600080fd5b5061024a6102453660046126bb565b610932565b60405190151581526020015b60405180910390f35b34801561026b57600080fd5b5061022861027a3660046126e5565b610969565b34801561028b57600080fd5b5061022861029a366004612702565b6109f2565b3480156102ab57600080fd5b506102286102ba3660046126e5565b610a11565b3480156102cb57600080fd5b506102df6102da36600461273c565b610a69565b60408051928352602083019190915201610256565b34801561030057600080fd5b5061024a61030f3660046127dc565b610b3c565b34801561032057600080fd5b5061034161032f3660046126e5565b60036020526000908152604090205481565b604051908152602001610256565b34801561035b57600080fd5b5061022861036a3660046127dc565b610c08565b34801561037b57600080fd5b50610341600081565b34801561039057600080fd5b50610399600081565b60405161ffff9091168152602001610256565b6102286103ba366004612845565b610c8e565b3480156103cb57600080fd5b506103416103da36600461297b565b6005602090815260009384526040808520845180860184018051928152908401958401959095209452929052825290205481565b34801561041a57600080fd5b50610228610429366004612626565b610d13565b34801561043a57600080fd5b50610228610def565b34801561044f57600080fd5b5061046361045e3660046126e5565b610e03565b6040516102569190612a6d565b34801561047c57600080fd5b5061034161048b366004612a80565b600260209081526000928352604080842090915290825290205481565b3480156104b457600080fd5b506000546001600160a01b03165b6040516001600160a01b039091168152602001610256565b3480156104e657600080fd5b50610341610e9d565b3480156104fb57600080fd5b506004546104c2906001600160a01b031681565b34801561051b57600080fd5b5061046361052a3660046126e5565b610fb0565b34801561053b57600080fd5b5061022861054a3660046127dc565b6110c6565b34801561055b57600080fd5b506104c27f000000000000000000000000000000000000000000000000000000000000000081565b34801561058f57600080fd5b5061022861059e366004612ab9565b61114f565b3480156105af57600080fd5b5061034161271081565b3480156105c557600080fd5b506102286105d4366004612ad6565b6111ac565b3480156105e557600080fd5b506104c2733c2269811836af69497e5f486a85d7316753cf6281565b61022861060f366004612626565b611236565b34801561062057600080fd5b5061022861062f366004612b48565b61144c565b34801561064057600080fd5b5061022861064f366004612b89565b6114fe565b34801561066057600080fd5b5061022861066f3660046127dc565b611547565b34801561068057600080fd5b5060065461024a9060ff1681565b34801561069a57600080fd5b506102286106a9366004612ab9565b6115a1565b3480156106ba57600080fd5b506104636106c9366004612ba6565b61161a565b3480156106da57600080fd5b507f00000000000000000000000000000000000000000000000000000000000000006104c2565b337f00000000000000000000000000000000000000000000000000000000000000006001600160a01b03161461077e5760405162461bcd60e51b815260206004820152601e60248201527f4c7a4170703a20696e76616c696420656e64706f696e742063616c6c6572000060448201526064015b60405180910390fd5b61ffff86166000908152600160205260408120805461079c90612bf7565b80601f01602080910402602001604051908101604052809291908181526020018280546107c890612bf7565b80156108155780601f106107ea57610100808354040283529160200191610815565b820191906000526020600020905b8154815290600101906020018083116107f857829003601f168201915b50505050509050805186869050148015610830575060008151115b801561085857508051602082012060405161084e9088908890612c31565b6040518091039020145b6108b35760405162461bcd60e51b815260206004820152602660248201527f4c7a4170703a20696e76616c696420736f757263652073656e64696e6720636f6044820152651b9d1c9858dd60d21b6064820152608401610775565b6109298787878080601f01602080910402602001604051908101604052809392919081815260200183838082843760009201919091525050604080516020601f8a018190048102820181019092528881528a9350915088908890819084018382808284376000920191909152506116cd92505050565b50505050505050565b60006001600160e01b03198216630a72677560e11b148061096357506301ffc9a760e01b6001600160e01b03198316145b92915050565b610971611746565b6040516307e0db1760e01b815261ffff821660048201527f00000000000000000000000000000000000000000000000000000000000000006001600160a01b0316906307e0db17906024015b600060405180830381600087803b1580156109d757600080fd5b505af11580156109eb573d6000803e3d6000fd5b5050505050565b6109fa611746565b61ffff909116600090815260036020526040902055565b610a19611746565b6040516310ddb13760e01b815261ffff821660048201527f00000000000000000000000000000000000000000000000000000000000000006001600160a01b0316906310ddb137906024016109bd565b600080600080898989604051602001610a859493929190612c6a565b60408051601f198184030181529082905263040a7bb160e41b825291506001600160a01b037f000000000000000000000000000000000000000000000000000000000000000016906340a7bb1090610aeb908d90309086908c908c908c90600401612c99565b6040805180830381865afa158015610b07573d6000803e3d6000fd5b505050506040513d601f19601f82011682018060405250810190610b2b9190612cef565b925092505097509795505050505050565b61ffff831660009081526001602052604081208054829190610b5d90612bf7565b80601f0160208091040260200160405190810160405280929190818152602001828054610b8990612bf7565b8015610bd65780601f10610bab57610100808354040283529160200191610bd6565b820191906000526020600020905b815481529060010190602001808311610bb957829003601f168201915b505050505090508383604051610bed929190612c31565b60405180910390208180519060200120149150509392505050565b610c10611746565b6040516342d65a8d60e01b81526001600160a01b037f000000000000000000000000000000000000000000000000000000000000000016906342d65a8d90610c6090869086908690600401612d13565b600060405180830381600087803b158015610c7a57600080fd5b505af1158015610929573d6000803e3d6000fd5b610d08898989898080601f01602080910402602001604051908101604052809392919081815260200183838082843760009201919091525050604080516020601f8a018190048102820181019092528881528c93508b92508a918a908a90819084018382808284376000920191909152506117a092505050565b505050505050505050565b333014610d715760405162461bcd60e51b815260206004820152602660248201527f4e6f6e626c6f636b696e674c7a4170703a2063616c6c6572206d7573742062656044820152650204c7a4170760d41b6064820152608401610775565b610de78686868080601f01602080910402602001604051908101604052809392919081815260200183838082843760009201919091525050604080516020601f89018190048102820181019092528781528993509150879087908190840183828082843760009201919091525061184792505050565b505050505050565b610df7611746565b610e0160006118ae565b565b60016020526000908152604090208054610e1c90612bf7565b80601f0160208091040260200160405190810160405280929190818152602001828054610e4890612bf7565b8015610e955780601f10610e6a57610100808354040283529160200191610e95565b820191906000526020600020905b815481529060010190602001808311610e7857829003601f168201915b505050505081565b6040516370a0823160e01b81523060048201526000907f00000000000000000000000000000000000000000000000000000000000000006001600160a01b0316906370a0823190602401602060405180830381865afa158015610f04573d6000803e3d6000fd5b505050506040513d601f19601f82011682018060405250810190610f289190612d31565b7f00000000000000000000000000000000000000000000000000000000000000006001600160a01b03166318160ddd6040518163ffffffff1660e01b8152600401602060405180830381865afa158015610f86573d6000803e3d6000fd5b505050506040513d601f19601f82011682018060405250810190610faa9190612d31565b03905090565b61ffff8116600090815260016020526040812080546060929190610fd390612bf7565b80601f0160208091040260200160405190810160405280929190818152602001828054610fff90612bf7565b801561104c5780601f106110215761010080835404028352916020019161104c565b820191906000526020600020905b81548152906001019060200180831161102f57829003601f168201915b5050505050905080516000036110a45760405162461bcd60e51b815260206004820152601d60248201527f4c7a4170703a206e6f20747275737465642070617468207265636f72640000006044820152606401610775565b6110bf6000601483516110b79190612d60565b8391906118fe565b9392505050565b6110ce611746565b8181306040516020016110e393929190612d73565b60408051601f1981840301815291815261ffff851660009081526001602052209061110e9082612ddf565b507f8c0400cfe2d1199b1a725c78960bcc2a344d869b80590d0f2bd005db15a572ce83838360405161114293929190612d13565b60405180910390a1505050565b611157611746565b600480546001600160a01b0319166001600160a01b0383169081179091556040519081527f5db758e995a17ec1ad84bdef7e8c3293a0bd6179bcce400dff5d4c3d87db726b906020015b60405180910390a150565b6111b4611746565b6040516332fb62e760e21b81526001600160a01b037f0000000000000000000000000000000000000000000000000000000000000000169063cbed8b9c906112089088908890889088908890600401612e9e565b600060405180830381600087803b15801561122257600080fd5b505af1158015610d08573d6000803e3d6000fd5b61ffff861660009081526005602052604080822090516112599088908890612c31565b90815260408051602092819003830190206001600160401b038716600090815292529020549050806112d95760405162461bcd60e51b815260206004820152602360248201527f4e6f6e626c6f636b696e674c7a4170703a206e6f2073746f726564206d65737360448201526261676560e81b6064820152608401610775565b8083836040516112ea929190612c31565b6040518091039020146113495760405162461bcd60e51b815260206004820152602160248201527f4e6f6e626c6f636b696e674c7a4170703a20696e76616c6964207061796c6f616044820152601960fa1b6064820152608401610775565b61ffff8716600090815260056020526040808220905161136c9089908990612c31565b90815260408051602092819003830181206001600160401b038916600090815290845282902093909355601f88018290048202830182019052868252611404918991899089908190840183828082843760009201919091525050604080516020601f8a018190048102820181019092528881528a93509150889088908190840183828082843760009201919091525061184792505050565b7fc264d91f3adc5588250e1551f547752ca0cfa8f6b530d243b9f9f4cab10ea8e5878787878560405161143b959493929190612ecc565b60405180910390a150505050505050565b611454611746565b6000811161149c5760405162461bcd60e51b81526020600482015260156024820152744c7a4170703a20696e76616c6964206d696e47617360581b6044820152606401610775565b61ffff83811660008181526002602090815260408083209487168084529482529182902085905581519283528201929092529081018290527f9d5c7c0b934da8fefa9c7760c98383778a12dfbfc0c3b3106518f43fb9508ac090606001611142565b611506611746565b6006805460ff19168215159081179091556040519081527f1584ad594a70cbe1e6515592e1272a987d922b097ead875069cebe8b40c004a4906020016111a1565b61154f611746565b61ffff8316600090815260016020526040902061156d828483612f07565b507ffa41487ad5d6728f0b19276fa1eddc16558578f5109fc39d2dc33c3230470dab83838360405161114293929190612d13565b6115a9611746565b6001600160a01b03811661160e5760405162461bcd60e51b815260206004820152602660248201527f4f776e61626c653a206e6577206f776e657220697320746865207a65726f206160448201526564647265737360d01b6064820152608401610775565b611617816118ae565b50565b604051633d7b2f6f60e21b815261ffff808616600483015284166024820152306044820152606481018290526060907f00000000000000000000000000000000000000000000000000000000000000006001600160a01b03169063f5ecbdbc90608401600060405180830381865afa15801561169a573d6000803e3d6000fd5b505050506040513d6000823e601f3d908101601f191682016040526116c2919081019061300b565b90505b949350505050565b6000806117305a60966366ad5c8a60e01b898989896040516024016116f5949392919061303f565b60408051601f198184030181529190526020810180516001600160e01b03166001600160e01b03199093169290921790915230929190611a0b565b9150915081610de757610de78686868685611a95565b6000546001600160a01b03163314610e015760405162461bcd60e51b815260206004820181905260248201527f4f776e61626c653a2063616c6c6572206973206e6f7420746865206f776e65726044820152606401610775565b6117ae866000836000611b32565b60006117bc88888888611bb2565b905060008087836040516020016117d59392919061307d565b60405160208183030381529060405290506117f4888287878734611d77565b886001600160a01b03168861ffff167f39a4c66499bcf4b56d79f0dde8ed7a9d4925a0df55825206b2b8531e202be0d089856040516118349291906130aa565b60405180910390a3505050505050505050565b602081015161ffff81166118665761186185858585611f1c565b6109eb565b60405162461bcd60e51b815260206004820152601c60248201527f4f4654436f72653a20756e6b6e6f776e207061636b65742074797065000000006044820152606401610775565b600080546001600160a01b038381166001600160a01b0319831681178455604051919092169283917f8be0079c531659141344cd1fd0a4f28419497f9722a3daafe3b4186f6b6457e09190a35050565b60608161190c81601f6130cc565b101561194b5760405162461bcd60e51b815260206004820152600e60248201526d736c6963655f6f766572666c6f7760901b6044820152606401610775565b61195582846130cc565b845110156119995760405162461bcd60e51b8152602060048201526011602482015270736c6963655f6f75744f66426f756e647360781b6044820152606401610775565b6060821580156119b85760405191506000825260208201604052611a02565b6040519150601f8416801560200281840101858101878315602002848b0101015b818310156119f15780518352602092830192016119d9565b5050858452601f01601f1916604052505b50949350505050565b6000606060008060008661ffff166001600160401b03811115611a3057611a3061290e565b6040519080825280601f01601f191660200182016040528015611a5a576020820181803683370190505b50905060008087516020890160008d8df191503d925086831115611a7c578692505b828152826000602083013e909890975095505050505050565b8180519060200120600560008761ffff1661ffff16815260200190815260200160002085604051611ac691906130df565b9081526040805191829003602090810183206001600160401b0388166000908152915220919091557fe183f33de2837795525b4792ca4cd60535bd77c53b7e7030060bfcf5734d6b0c90611b2390879087908790879087906130fb565b60405180910390a15050505050565b60065460ff1615611b4e57611b4984848484611fa6565b611bac565b815115611bac5760405162461bcd60e51b815260206004820152602660248201527f4f4654436f72653a205f61646170746572506172616d73206d7573742062652060448201526532b6b83a3c9760d11b6064820152608401610775565b50505050565b60006001600160a01b0385163314611c175760405162461bcd60e51b815260206004820152602260248201527f50726f78794f46543a206f776e6572206973206e6f742073656e642063616c6c60448201526132b960f11b6064820152608401610775565b6040516370a0823160e01b81523060048201526000907f00000000000000000000000000000000000000000000000000000000000000006001600160a01b0316906370a0823190602401602060405180830381865afa158015611c7e573d6000803e3d6000fd5b505050506040513d601f19601f82011682018060405250810190611ca29190612d31565b9050611cd96001600160a01b037f000000000000000000000000000000000000000000000000000000000000000016873086612085565b6040516370a0823160e01b815230600482015281907f00000000000000000000000000000000000000000000000000000000000000006001600160a01b0316906370a0823190602401602060405180830381865afa158015611d3f573d6000803e3d6000fd5b505050506040513d601f19601f82011682018060405250810190611d639190612d31565b611d6d9190612d60565b9695505050505050565b61ffff861660009081526001602052604081208054611d9590612bf7565b80601f0160208091040260200160405190810160405280929190818152602001828054611dc190612bf7565b8015611e0e5780601f10611de357610100808354040283529160200191611e0e565b820191906000526020600020905b815481529060010190602001808311611df157829003601f168201915b505050505090508051600003611e7f5760405162461bcd60e51b815260206004820152603060248201527f4c7a4170703a2064657374696e6174696f6e20636861696e206973206e6f742060448201526f61207472757374656420736f7572636560801b6064820152608401610775565b611e8a8787516120f0565b60405162c5803160e81b81526001600160a01b037f0000000000000000000000000000000000000000000000000000000000000000169063c5803100908490611ee1908b9086908c908c908c908c90600401613159565b6000604051808303818588803b158015611efa57600080fd5b505af1158015611f0e573d6000803e3d6000fd5b505050505050505050505050565b60008082806020019051810190611f3391906131b3565b909350915060009050611f468382612166565b9050611f538782846121cb565b9150806001600160a01b03168761ffff167fbf551ec93859b170f9b2141bd9298bf3f64322c6f7beb2543a0cb669834118bf84604051611f9591815260200190565b60405180910390a350505050505050565b6000611fb183612331565b61ffff808716600090815260026020908152604080832093891683529290529081205491925090611fe39084906130cc565b9050600081116120355760405162461bcd60e51b815260206004820152601a60248201527f4c7a4170703a206d696e4761734c696d6974206e6f74207365740000000000006044820152606401610775565b80821015610de75760405162461bcd60e51b815260206004820152601b60248201527f4c7a4170703a20676173206c696d697420697320746f6f206c6f7700000000006044820152606401610775565b6040516001600160a01b0380851660248301528316604482015260648101829052611bac9085906323b872dd60e01b906084015b60408051601f198184030181529190526020810180516001600160e01b03166001600160e01b03199093169290921790915261238d565b61ffff82166000908152600360205260408120549081900361211157506127105b808211156121615760405162461bcd60e51b815260206004820181905260248201527f4c7a4170703a207061796c6f61642073697a6520697320746f6f206c617267656044820152606401610775565b505050565b60006121738260146130cc565b835110156121bb5760405162461bcd60e51b8152602060048201526015602482015274746f416464726573735f6f75744f66426f756e647360581b6044820152606401610775565b500160200151600160601b900490565b6040516370a0823160e01b81526001600160a01b03838116600483015260009182917f000000000000000000000000000000000000000000000000000000000000000016906370a0823190602401602060405180830381865afa158015612236573d6000803e3d6000fd5b505050506040513d601f19601f8201168201806040525081019061225a9190612d31565b90506122906001600160a01b037f000000000000000000000000000000000000000000000000000000000000000016858561245f565b6040516370a0823160e01b81526001600160a01b03858116600483015282917f0000000000000000000000000000000000000000000000000000000000000000909116906370a0823190602401602060405180830381865afa1580156122fa573d6000803e3d6000fd5b505050506040513d601f19601f8201168201806040525081019061231e9190612d31565b6123289190612d60565b95945050505050565b60006022825110156123855760405162461bcd60e51b815260206004820152601c60248201527f4c7a4170703a20696e76616c69642061646170746572506172616d73000000006044820152606401610775565b506022015190565b60006123e2826040518060400160405280602081526020017f5361666545524332303a206c6f772d6c6576656c2063616c6c206661696c6564815250856001600160a01b031661248f9092919063ffffffff16565b8051909150156121615780806020019051810190612400919061320c565b6121615760405162461bcd60e51b815260206004820152602a60248201527f5361666545524332303a204552433230206f7065726174696f6e20646964206e6044820152691bdd081cdd58d8d9595960b21b6064820152608401610775565b6040516001600160a01b03831660248201526044810182905261216190849063a9059cbb60e01b906064016120b9565b60606116c5848460008585600080866001600160a01b031685876040516124b691906130df565b60006040518083038185875af1925050503d80600081146124f3576040519150601f19603f3d011682016040523d82523d6000602084013e6124f8565b606091505b509150915061250987838387612514565b979650505050505050565b6060831561258357825160000361257c576001600160a01b0385163b61257c5760405162461bcd60e51b815260206004820152601d60248201527f416464726573733a2063616c6c20746f206e6f6e2d636f6e74726163740000006044820152606401610775565b50816116c5565b6116c583838151156125985781518083602001fd5b8060405162461bcd60e51b81526004016107759190612a6d565b61ffff8116811461161757600080fd5b60008083601f8401126125d457600080fd5b5081356001600160401b038111156125eb57600080fd5b60208301915083602082850101111561260357600080fd5b9250929050565b80356001600160401b038116811461262157600080fd5b919050565b6000806000806000806080878903121561263f57600080fd5b863561264a816125b2565b955060208701356001600160401b038082111561266657600080fd5b6126728a838b016125c2565b909750955085915061268660408a0161260a565b9450606089013591508082111561269c57600080fd5b506126a989828a016125c2565b979a9699509497509295939492505050565b6000602082840312156126cd57600080fd5b81356001600160e01b0319811681146110bf57600080fd5b6000602082840312156126f757600080fd5b81356110bf816125b2565b6000806040838503121561271557600080fd5b8235612720816125b2565b946020939093013593505050565b801515811461161757600080fd5b600080600080600080600060a0888a03121561275757600080fd5b8735612762816125b2565b965060208801356001600160401b038082111561277e57600080fd5b61278a8b838c016125c2565b909850965060408a0135955060608a013591506127a68261272e565b909350608089013590808211156127bc57600080fd5b506127c98a828b016125c2565b989b979a50959850939692959293505050565b6000806000604084860312156127f157600080fd5b83356127fc816125b2565b925060208401356001600160401b0381111561281757600080fd5b612823868287016125c2565b9497909650939450505050565b6001600160a01b038116811461161757600080fd5b600080600080600080600080600060e08a8c03121561286357600080fd5b893561286e81612830565b985060208a013561287e816125b2565b975060408a01356001600160401b038082111561289a57600080fd5b6128a68d838e016125c2565b909950975060608c0135965060808c013591506128c282612830565b90945060a08b0135906128d482612830565b90935060c08b013590808211156128ea57600080fd5b506128f78c828d016125c2565b915080935050809150509295985092959850929598565b634e487b7160e01b600052604160045260246000fd5b604051601f8201601f191681016001600160401b038111828210171561294c5761294c61290e565b604052919050565b60006001600160401b0382111561296d5761296d61290e565b50601f01601f191660200190565b60008060006060848603121561299057600080fd5b833561299b816125b2565b925060208401356001600160401b038111156129b657600080fd5b8401601f810186136129c757600080fd5b80356129da6129d582612954565b612924565b8181528760208385010111156129ef57600080fd5b81602084016020830137600060208383010152809450505050612a146040850161260a565b90509250925092565b60005b83811015612a38578181015183820152602001612a20565b50506000910152565b60008151808452612a59816020860160208601612a1d565b601f01601f19169290920160200192915050565b6020815260006110bf6020830184612a41565b60008060408385031215612a9357600080fd5b8235612a9e816125b2565b91506020830135612aae816125b2565b809150509250929050565b600060208284031215612acb57600080fd5b81356110bf81612830565b600080600080600060808688031215612aee57600080fd5b8535612af9816125b2565b94506020860135612b09816125b2565b93506040860135925060608601356001600160401b03811115612b2b57600080fd5b612b37888289016125c2565b969995985093965092949392505050565b600080600060608486031215612b5d57600080fd5b8335612b68816125b2565b92506020840135612b78816125b2565b929592945050506040919091013590565b600060208284031215612b9b57600080fd5b81356110bf8161272e565b60008060008060808587031215612bbc57600080fd5b8435612bc7816125b2565b93506020850135612bd7816125b2565b92506040850135612be781612830565b9396929550929360600135925050565b600181811c90821680612c0b57607f821691505b602082108103612c2b57634e487b7160e01b600052602260045260246000fd5b50919050565b8183823760009101908152919050565b81835281816020850137506000828201602090810191909152601f909101601f19169091010190565b61ffff85168152606060208201526000612c88606083018587612c41565b905082604083015295945050505050565b61ffff871681526001600160a01b038616602082015260a060408201819052600090612cc790830187612a41565b85151560608401528281036080840152612ce2818587612c41565b9998505050505050505050565b60008060408385031215612d0257600080fd5b505080516020909101519092909150565b61ffff841681526040602082015260006116c2604083018486612c41565b600060208284031215612d4357600080fd5b5051919050565b634e487b7160e01b600052601160045260246000fd5b8181038181111561096357610963612d4a565b8284823760609190911b6bffffffffffffffffffffffff19169101908152601401919050565b601f82111561216157600081815260208120601f850160051c81016020861015612dc05750805b601f850160051c820191505b81811015610de757828155600101612dcc565b81516001600160401b03811115612df857612df861290e565b612e0c81612e068454612bf7565b84612d99565b602080601f831160018114612e415760008415612e295750858301515b600019600386901b1c1916600185901b178555610de7565b600085815260208120601f198616915b82811015612e7057888601518255948401946001909101908401612e51565b5085821015612e8e5787850151600019600388901b60f8161c191681555b5050505050600190811b01905550565b600061ffff808816835280871660208401525084604083015260806060830152612509608083018486612c41565b61ffff86168152608060208201526000612eea608083018688612c41565b6001600160401b0394909416604083015250606001529392505050565b6001600160401b03831115612f1e57612f1e61290e565b612f3283612f2c8354612bf7565b83612d99565b6000601f841160018114612f665760008515612f4e5750838201355b600019600387901b1c1916600186901b1783556109eb565b600083815260209020601f19861690835b82811015612f975786850135825560209485019460019092019101612f77565b5086821015612fb45760001960f88860031b161c19848701351681555b505060018560011b0183555050505050565b600082601f830112612fd757600080fd5b8151612fe56129d582612954565b818152846020838601011115612ffa57600080fd5b6116c5826020830160208701612a1d565b60006020828403121561301d57600080fd5b81516001600160401b0381111561303357600080fd5b6116c584828501612fc6565b61ffff8516815260806020820152600061305c6080830186612a41565b6001600160401b038516604084015282810360608401526125098185612a41565b61ffff8416815260606020820152600061309a6060830185612a41565b9050826040830152949350505050565b6040815260006130bd6040830185612a41565b90508260208301529392505050565b8082018082111561096357610963612d4a565b600082516130f1818460208701612a1d565b9190910192915050565b61ffff8616815260a06020820152600061311860a0830187612a41565b6001600160401b038616604084015282810360608401526131398186612a41565b9050828103608084015261314d8185612a41565b98975050505050505050565b61ffff8716815260c06020820152600061317660c0830188612a41565b82810360408401526131888188612a41565b6001600160a01b0387811660608601528616608085015283810360a08501529050612ce28185612a41565b6000806000606084860312156131c857600080fd5b83516131d3816125b2565b60208501519093506001600160401b038111156131ef57600080fd5b6131fb86828701612fc6565b925050604084015190509250925092565b60006020828403121561321e57600080fd5b81516110bf8161272e56fea264697066735822122076a72c5123eb7858e251a8a4f85dae3395f3ba0f88a1375f08163c881b5340a664736f6c63430008110033",
  "devdoc": {
    "kind": "dev",
    "methods": {
      "circulatingSupply()": {
        "details": "returns the circulating amount of tokens on current chain"
      },
      "estimateSendFee(uint16,bytes,uint256,bool,bytes)": {
        "details": "estimate send token `_tokenId` to (`_dstChainId`, `_toAddress`) _dstChainId - L0 defined chain id to send tokens too _toAddress - dynamic bytes array which contains the address to whom you are sending tokens to on the dstChain _amount - amount of the tokens to transfer _useZro - indicates to use zro to pay L0 fees _adapterParam - flexible bytes array to indicate messaging adapter services in L0"
      },
      "owner()": {
        "details": "Returns the address of the current owner."
      },
      "renounceOwnership()": {
        "details": "Leaves the contract without owner. It will not be possible to call `onlyOwner` functions anymore. Can only be called by the current owner. NOTE: Renouncing ownership will leave the contract without an owner, thereby removing any functionality that is only available to the owner."
      },
      "sendFrom(address,uint16,bytes,uint256,address,address,bytes)": {
        "details": "send `_amount` amount of token to (`_dstChainId`, `_toAddress`) from `_from` `_from` the owner of token `_dstChainId` the destination chain identifier `_toAddress` can be any size depending on the `dstChainId`. `_amount` the quantity of tokens in wei `_refundAddress` the address LayerZero refunds if too much message fee is sent `_zroPaymentAddress` set to address(0x0) if not paying in ZRO (LayerZero Token) `_adapterParams` is a flexible bytes array to indicate messaging adapter services"
      },
      "token()": {
        "details": "returns the address of the ERC20 token"
      },
      "transferOwnership(address)": {
        "details": "Transfers ownership of the contract to a new account (`newOwner`). Can only be called by the current owner."
      }
    },
    "version": 1
  },
  "userdoc": {
    "kind": "user",
    "methods": {},
    "version": 1
  },
  "storageLayout": {
    "storage": [
      {
        "astId": 1983,
        "contract": "contracts/ProxyOFT.sol:ProxyOFT",
        "label": "_owner",
        "offset": 0,
        "slot": "0",
        "type": "t_address"
      },
      {
        "astId": 215,
        "contract": "contracts/ProxyOFT.sol:ProxyOFT",
        "label": "trustedRemoteLookup",
        "offset": 0,
        "slot": "1",
        "type": "t_mapping(t_uint16,t_bytes_storage)"
      },
      {
        "astId": 221,
        "contract": "contracts/ProxyOFT.sol:ProxyOFT",
        "label": "minDstGasLookup",
        "offset": 0,
        "slot": "2",
        "type": "t_mapping(t_uint16,t_mapping(t_uint16,t_uint256))"
      },
      {
        "astId": 225,
        "contract": "contracts/ProxyOFT.sol:ProxyOFT",
        "label": "payloadSizeLimitLookup",
        "offset": 0,
        "slot": "3",
        "type": "t_mapping(t_uint16,t_uint256)"
      },
      {
        "astId": 227,
        "contract": "contracts/ProxyOFT.sol:ProxyOFT",
        "label": "precrime",
        "offset": 0,
        "slot": "4",
        "type": "t_address"
      },
      {
        "astId": 764,
        "contract": "contracts/ProxyOFT.sol:ProxyOFT",
        "label": "failedMessages",
        "offset": 0,
        "slot": "5",
        "type": "t_mapping(t_uint16,t_mapping(t_bytes_memory_ptr,t_mapping(t_uint64,t_bytes32)))"
      },
      {
        "astId": 1229,
        "contract": "contracts/ProxyOFT.sol:ProxyOFT",
        "label": "useCustomAdapterParams",
        "offset": 0,
        "slot": "6",
        "type": "t_bool"
      }
    ],
    "types": {
      "t_address": {
        "encoding": "inplace",
        "label": "address",
        "numberOfBytes": "20"
      },
      "t_bool": {
        "encoding": "inplace",
        "label": "bool",
        "numberOfBytes": "1"
      },
      "t_bytes32": {
        "encoding": "inplace",
        "label": "bytes32",
        "numberOfBytes": "32"
      },
      "t_bytes_memory_ptr": {
        "encoding": "bytes",
        "label": "bytes",
        "numberOfBytes": "32"
      },
      "t_bytes_storage": {
        "encoding": "bytes",
        "label": "bytes",
        "numberOfBytes": "32"
      },
      "t_mapping(t_bytes_memory_ptr,t_mapping(t_uint64,t_bytes32))": {
        "encoding": "mapping",
        "key": "t_bytes_memory_ptr",
        "label": "mapping(bytes => mapping(uint64 => bytes32))",
        "numberOfBytes": "32",
        "value": "t_mapping(t_uint64,t_bytes32)"
      },
      "t_mapping(t_uint16,t_bytes_storage)": {
        "encoding": "mapping",
        "key": "t_uint16",
        "label": "mapping(uint16 => bytes)",
        "numberOfBytes": "32",
        "value": "t_bytes_storage"
      },
      "t_mapping(t_uint16,t_mapping(t_bytes_memory_ptr,t_mapping(t_uint64,t_bytes32)))": {
        "encoding": "mapping",
        "key": "t_uint16",
        "label": "mapping(uint16 => mapping(bytes => mapping(uint64 => bytes32)))",
        "numberOfBytes": "32",
        "value": "t_mapping(t_bytes_memory_ptr,t_mapping(t_uint64,t_bytes32))"
      },
      "t_mapping(t_uint16,t_mapping(t_uint16,t_uint256))": {
        "encoding": "mapping",
        "key": "t_uint16",
        "label": "mapping(uint16 => mapping(uint16 => uint256))",
        "numberOfBytes": "32",
        "value": "t_mapping(t_uint16,t_uint256)"
      },
      "t_mapping(t_uint16,t_uint256)": {
        "encoding": "mapping",
        "key": "t_uint16",
        "label": "mapping(uint16 => uint256)",
        "numberOfBytes": "32",
        "value": "t_uint256"
      },
      "t_mapping(t_uint64,t_bytes32)": {
        "encoding": "mapping",
        "key": "t_uint64",
        "label": "mapping(uint64 => bytes32)",
        "numberOfBytes": "32",
        "value": "t_bytes32"
      },
      "t_uint16": {
        "encoding": "inplace",
        "label": "uint16",
        "numberOfBytes": "2"
      },
      "t_uint256": {
        "encoding": "inplace",
        "label": "uint256",
        "numberOfBytes": "32"
      },
      "t_uint64": {
        "encoding": "inplace",
        "label": "uint64",
        "numberOfBytes": "8"
      }
    }
  }
}